:020000040000fa
:040010001a040000ce
:020000040000fa
:040154001a04000089
:020000040000fa
:040110001a040000cd
:020000040000fa
:040194001a04000049
:020000040000fa
:0401c0001a0400001d
:020000040000fa
:040164001a04000079
:020000040000fa
:0401cc001a04000011
:020000040000fa
:0401d4001a04000009
:020000040000fa
:0401d8001a04000005
:020000040000fa
:04012c001a040000b1
:020000040000fa
:040138001a040000a5
:020000040000fa
:040198001a04000045
:020000040000fa
:04019c001a04000041
:020000040000fa
:0401a0001a0400003d
:020000040000fa
:0401a4001a04000039
:020000040000fa
:04016c001a04000071
:020000040000fa
:040170001a0400006d
:020000040000fa
:040128001a040000b5
:020000040000fa
:040168001a04000075
:020000040000fa
:040184001a04000059
:020000040000fa
:0401b8001a04000025
:020000040000fa
:0401bc001a04000021
:020000040000fa
:0401d0001a0400000d
:020000040000fa
:040160001a0400007d
:020000040000fa
:040118001a040000c5
:020000040000fa
:040158001a04000085
:020000040000fa
:040130001a040000ad
:020000040000fa
:04013c001a040000a1
:020000040000fa
:040174001a04000069
:020000040000fa
:040178001a04000065
:020000040000fa
:0401a8001a04000035
:020000040000fa
:0401ac001a04000031
:020000040000fa
:0401b0001a0400002d
:020000040000fa
:0401b4001a04000029
:020000040000fa
:04010c001a040000d1
:020000040000fa
:0401c4001a04000019
:020000040000fa
:0401c8001a04000015
:020000040000fa
:040108001a040000d5
:020000040000fa
:04011c001a040000c1
:020000040000fa
:040120001a040000bd
:020000040000fa
:040124001a040000b9
:020000040000fa
:04015c001a04000081
:020000040000fa
:040148001a04000095
:020000040000fa
:040190001a0400004d
:020000040000fa
:040114001a040000c9
:020000040000fa
:040134001a040000a9
:020000040000fa
:040140001a0400009d
:020000040000fa
:040144001a04000099
:020000040000fa
:04017c001a04000061
:020000040000fa
:040180001a0400005d
:020000040000fa
:04014c001a04000091
:020000040000fa
:040150001a0400008d
:020000040000fa
:040188001a04000055
:020000040000fa
:04018c001a04000051
:020000040000fa
:040094001a0400004a
:020000040000fa
:0400c0001a0400001e
:020000040000fa
:040064001a0400007a
:020000040000fa
:0400cc001a04000012
:020000040000fa
:0400d4001a0400000a
:020000040000fa
:0400d8001a04000006
:020000040000fa
:04002c001a040000b2
:020000040000fa
:040038001a040000a6
:020000040000fa
:040098001a04000046
:020000040000fa
:04009c001a04000042
:020000040000fa
:0400a0001a0400003e
:020000040000fa
:0400a4001a0400003a
:020000040000fa
:04006c001a04000072
:020000040000fa
:040070001a0400006e
:020000040000fa
:040028001a040000b6
:020000040000fa
:040068001a04000076
:020000040000fa
:040084001a0400005a
:020000040000fa
:0400b8001a04000026
:020000040000fa
:0400bc001a04000022
:020000040000fa
:0400d0001a0400000e
:020000040000fa
:040018001a040000c6
:020000040000fa
:040058001a04000086
:020000040000fa
:040030001a040000ae
:020000040000fa
:04003c001a040000a2
:020000040000fa
:040074001a0400006a
:020000040000fa
:040078001a04000066
:020000040000fa
:0400a8001a04000036
:020000040000fa
:0400ac001a04000032
:020000040000fa
:0400b0001a0400002e
:020000040000fa
:0400b4001a0400002a
:020000040000fa
:04000c001a040000d2
:020000040000fa
:0400c4001a0400001a
:020000040000fa
:0400c8001a04000016
:020000040000fa
:040008001a040000d6
:020000040000fa
:04001c001a040000c2
:020000040000fa
:040020001a040000be
:020000040000fa
:040024001a040000ba
:020000040000fa
:04005c001a04000082
:020000040000fa
:040048001a04000096
:020000040000fa
:040090001a0400004e
:020000040000fa
:040014001a040000ca
:020000040000fa
:040044001a0400009a
:020000040000fa
:04004c001a04000092
:020000040000fa
:040050001a0400008e
:020000040000fa
:080000000001040000000000f3
:020000040000fa
:100200008f3521000e7f22000e01880000000000c3
:10021000000020000000e000020032000001200089
:100220002002880014000700ad0107000000e00074
:1002300003003a00005922000100200002003700ac
:100240000000200001002000810f7000010032003a
:1002500014000700000020000000e000020032004f
:100260000000020000000000481f02000000000023
:100270000040da000000fe004440a9000000200019
:100280000000e0000300320000002000a001880010
:100290004440a800000006008a1f78008b1f7800e9
:1002a0000000060091018800800478000000eb0047
:1002b0001a003700e284440032a0b4009905ba0065
:1002c000e284440032a0b4009906ba00e2844400fb
:1002d00032a0b4000006eb00476fde00fd07b2005d
:1002e000636ce10003003a00ebff07000000eb0045
:1002f0000a003700606ce10004003a00005deb008a
:100300008b05e900fdff3e00040037006168e10055
:10031000010032000086eb000b00070019c7ba008d
:100320001905ba000e04e00003003a000a00e000dc
:10033000e0ff3a0000000600fe07b2009e018800c0
:100340008a047800f5ff3700395dba008b05e900b3
:100350000c003200295dba008b05e900080032006c
:100360000c00e00003003a00e284440032a0b40034
:10037000f5ff370019ddba008b05e900faff3a00f6
:100380008904e800e184440032a0b40000000600c3
:10039000f01d0400000000004a1d040000000000e1
:1003a00000a0fe003600f800849fbe00869fbe00bd
:1003b0003400f80004002000a40188000000fa00c6
:1003c0008460a900306b80000000e0000a003a0061
:1003d000406b8000e10f500003003200e20f50003c
:1003e0000300320004003700ac07070002003700aa
:1003f0005111070000000000807580009175800099
:1004000061004000e0804800807588009175880098
:100410000080fa003400f9004f03be004f02be0016
:100420003600f9000080fe00004006003400f800ad
:10043000881f780008002000a80188004f04780079
:100440000000fa0085c0a9001e69ef000080fa00d4
:100450003400f900004006003600f800809fbe001e
:10046000829fbe00849fbe00869fbe003400f800bd
:1004700000002000a00188000000fa008560a900ab
:10048000c0478000e10f500003003a00f0478000b1
:100490000000e800f0478800f1478000b099200094
:1004a000808f50000f003400fe28ef00d0478000fe
:1004b0000000e0000b003a00e2e2a900e302a9001c
:1004c000e802a900e822a9000029ef00a00120000d
:1004d000104888000629ef000429ef0010002000d2
:1004e000b0478800b04780000000e0000300320001
:1004f000e10f50000300320004003700ea0b070050
:10050000020037000d0c0700000000000080fa0018
:100510003400f9004f03be004f02be004f01be0081
:100520004f00be003600f9000040060000a0fe00ab
:100530003400f800881f780008002000a801880017
:100540004f0478000000fa0086c0a90040488000ef
:100550000000e0000c003400604880000000e8006b
:1005600060488800904880000000e90090488800ba
:10057000904880000000e0000d003d0030002000a9
:10058000904888000a003700604880000000e900b9
:1005900060488800904880000000e800904888008b
:1005a00090488000e30f5000010034001229ef0052
:1005b00090488000e10f50000f003200e10f500022
:1005c00003003c000000e000060032001900370084
:1005d000e20f50000d003200e30f50001000320017
:1005e00014003700d602a900d622a800d642a900de
:1005f000d662a8000f003700d602a900d622a800b4
:10060000d642a800d662a9000a003700d602a80088
:10061000d622a900d642a800d662a900050037005c
:10062000d602a800d622a900d642a900d662a80008
:10063000000000000080fa003400f9000080fe0095
:100640000040060000a0fe003400f800881f78007b
:1006500008002000a80188004f0478000000fa007c
:1006600086a0a900504880000000e0000c003d007a
:10067000704880000000e9007048880080488000d1
:100680000000e90080488800804880000000e00009
:100690000d003d0030002000804888000a0037002f
:1006a000704880000000e8007048880080488000a2
:1006b0000000e8008048880080488000e30f500078
:1006c000010034001029ef0080488000e10f500045
:1006d0000f003200e10f500003003c000000e0007a
:1006e0000600320019003700e20f50000d00320002
:1006f000e30f50001000320014003700d682a9002a
:10070000d6a2a800d6c2a900d6e2a8000f003700e2
:10071000d682a900d6a2a800d6c2a800d6e2a90017
:100720000a003700d682a800d6a2a900d6c2a80027
:10073000d6e2a90005003700d682a800d6a2a900fb
:10074000d6c2a900d6e2a800000000000080fa008e
:100750003400f9000080fe00004006003600f8007a
:10076000809fbe00829fbe00849fbe00869fbe0009
:100770003400f80000002000a00188000200fa0008
:1007800001498000010f780084c0a9001e003700d5
:100790001e00780040409000e14f500017003a00e2
:1007a0001e007800100078000000e0001300320006
:1007b0001e007800100090008000e8001e00780005
:1007c000110098001e007800100090008000780052
:1007d0001e007800100078000000e900808f5000b3
:1007e000060036001e007800300090000000010076
:1007f0001e0078008000eb00110098001e007800b9
:10080000c0009000010f78001e0078000000e0009a
:10081000dfff3a000080fa003400f9004f03be0009
:100820004f02be004f01be004f00be003600f9006f
:10083000004006000040da000000fe000c02e2006a
:1008400004003d000f42ab00020032000f02ab007b
:10085000feff32000040da00feff3700889fbe0036
:1008600080047800b08a80000000e00004003a00b4
:100870000e0007000084eb000000e00008003500d7
:10088000b88a80000900e000050032000900440039
:10089000060007000000e00001003d000084eb00be
:1008a000080078004f04be000000060080007800b9
:1008b0000100e00003003a0080152100b08a8800a2
:1008c000000005000080eb0082352100828f50007f
:1008d00002003e00b18a88000000eb000000060024
:1008e0000000050003f0a200889fbe008a9fbe00a2
:1008f0008c1f78009b010700a20133006450e100c7
:100900004f0032006420e1005200320003826c008c
:1009100007003b000905d0000306d000820f5400f9
:100920000c065d00020039000200320089017800e7
:10093000030678008582550004003d000003fd0099
:100940008103fd008502ea008b854200840f72005e
:1009500002003b0060001000e08018006011b80049
:100960000005eb007a28e1000a0039000600780053
:10097000c75ddd00f707b200878075002d003700e6
:10098000828171000a017800610560008180d100d8
:100990000080d3008502e900f9ff3b000604400017
:1009a0008784480002003b0060041400e0841c00bf
:1009b0000988a300070032008a81710082817100da
:1009c000610164008904d1000884d3008b05e8002c
:1009d000170037000978a30013003a000b00e0006d
:1009e000130034008b05e9000804440089844c009e
:1009f0000a4474000978a3000d003a000b00e000df
:100a0000070034008b05e9000804440089844c0089
:100a100001003a000b0020000978a300f7ff320024
:100a20000001eb0002003700828171000a017800aa
:100a3000110107000cf0a70001f0a0005a013700d7
:100a40006420e10002003a00838f6c005a013300f9
:100a50000801be000200be0053013700889fbe009f
:100a60008a9fbe008c1f78003e0107001002200004
:100a700002003b0020498800420137008a006200e2
:100a80006408e10002003a00204988004a0137006a
:100a90006108e100fcff32000800be00030478009a
:100aa0007200070001f0a1000900070008f0a6008d
:100ab000040037000001be0091042400b0fd2000b6
:100ac00088ff070009f0a70001f0a20036013700f7
:100ad000889fbe008a9fbe008c9fbe000004be009f
:100ae0000b0107000800be00890678006420e100c1
:100af00008003900040032000160a000120220004a
:100b0000224988005300370091fc2300b0fd2000eb
:100b10004e0037000006eb0009f0a10003f82300a7
:100b2000020020000800be0092000700060034000a
:100b300001f82300000020000801be004b00070060
:100b40000004be002c0020000800be0093e8230033
:100b5000320a230087000700120034000801be009b
:100b6000d1fd2300703d2b005fff07000005be0094
:100b7000b3f32300f27a26000800be00110107003b
:100b800003f823000200200056ff07000801be0002
:100b900055ff07000a01be00340007000004be0034
:100ba0000c06e8000800be0001f0a10002002000d1
:100bb000039823006f0007000800be0016003500f0
:100bc0000801be00ff0007000005be0032cd2c006a
:100bd00043fb230044ff0700809fbe0012692800ea
:100be00003d52b000a00be00f6000700620f2100ab
:100bf00013ef2b003cff07000a01be00f1000700c5
:100c00004f01be00190007000801be00ed000700fb
:100c10000801be0034ff07000c00e0000b003200aa
:100c20000c10a70001f0a200b2fd200093fc2300ed
:100c30006260e1000400320022a9200063f023007a
:100c40000c10a70063f8230027ff07000df0a70092
:100c500001f0a2004f06be004f05be004f04be00cb
:100c6000000006000081eb000a013700889fbe00eb
:100c70008a9fbe008c1f7800ba000700c1003300b5
:100c800003866c006450e1002e0032006420e10015
:100c9000330032006150e1002f0032006120e1009a
:100ca0003100320085855500eb07b00009002000b7
:100cb00008042000050037000804440089844c0023
:100cc0000a0031000603430087834b0000015300f4
:100cd00081815b00f8ff33000203be000800a00022
:100ce0000804440089844c00f6ff3900c639dd0051
:100cf0008301730001003200130020008904d10039
:100d00000884d3000998a300050032000800a7005a
:100d10000300a0008904d1000884d3008b05e800fb
:100d20008904d1000884d3000001eb000281d200c5
:100d30005100070001f0a1000cf0a70001f0a00095
:100d4000990037006420e1009b0032000801be00da
:100d50000200be00f7ff37006120e100960032007c
:100d60006000b800f3ff37000000200001f8270002
:100d7000f0ff370014002000640137000001be00be
:100d8000630007000470a70003f0a1006509b1002b
:100d9000160032000d0035006828e100060035001d
:100da000f0ff2f00f1ff27000300e00013003b00dd
:100db000010028000000050000004000818048007c
:100dc0008502e900fcff3a0008003700f88f420076
:100dd00002003c008000eb00000005008100d10013
:100de0000080d3008502e800fcff3a000300e00029
:100df00002003b0060001000e080180000000600c8
:100e00000001be00420007000470a70003f0a1002b
:100e100003f8a30013003a006509b1001000320086
:100e2000090035006928e1000200350001002800b2
:100e30000000050000004000818048008502e900b4
:100e4000fcff3a0000000600f88f42000500350064
:100e50008100d1000080d3008502e800fcff3a0049
:100e6000000006008000eb00000005004f89de0056
:100e70008201780040013700810020006180550028
:100e80000b003d000b00200061fe2f000100e1007f
:100e90001d00340082817100610164008904d10069
:100ea0000884d3000000e800faff3a007100200037
:100eb000610064000300700002006000090032005d
:100ec00061044400e0844c000988a500050032005c
:100ed0008b05e8006808e10002003a008904d100af
:100ee0000884d300f20f20000258e10005003d0005
:100ef000c75ddd00f907b200898075000800780041
:100f0000000006000bf827008b00780000000500a9
:100f1000c70ade00f107b200f50fb2000800320088
:100f2000e1cf4200020032000170a0002400050061
:100f3000810f700001003200040805004400050024
:100f4000810f700002003a00140005008502e900dc
:100f50000000400081c04800fcff3b000170a00081
:100f6000240005000004be00e9ff07000003be00e6
:100f70000405be000200be00e5ff0700844f7500b7
:100f8000000006000200be006450e10005003600cb
:100f90006420e100020036000968a30001003a0065
:100fa0000800be000160a0004f0678004f05be009b
:100fb0004f04be0000000600f0ff2f00f1ff2700e5
:100fc000f9ff3700889fbe008a9fbe008c1f780003
:100fd000e4ff0700ebff330003866c006450e10080
:100fe000240032006420e100270032006150e1005b
:100ff000220032006120e100210032008b85420096
:10100000eb07b1000134b800003ab8000804420010
:1010100089844a00013ab8000030b8008880400056
:1010200009014a00040033000000400081804800ac
:10103000020149008b05e900c909dd008301700048
:101040000100320013002000c814de004814dd0047
:101050004709de001200b200c808de0008847000f4
:1010600085ff070001f0a1000cf0a70001f0a0002f
:10107000cdff37006120e100cfff32000801be0044
:101080000200be00f7ff37006150e100fcff3a00ac
:10109000c9ff3700889fbe008a9fbe008c9fbe009c
:1010a000820578000004be0099ff07000800be001a
:1010b0006420e1000700390002003a00f1ff270038
:1010c000f0ff2f000160a0001202200022498800da
:1010d000550037006120e10003003a000b00a70033
:1010e00001f823005000370001f0a10002002100a8
:1010f000936424001fff07000800be0004003500b1
:10110000b2fd2000930c2400da0007000004be00aa
:101110000005eb000b00a6004f0dde0001f0a10062
:101120000004be0032982f0023ea2300a5ff070029
:101130000001eb0003f023000b00a70003f82300dd
:10114000e9fd07000dff07000000a7000a00a2004c
:1011500046ff07000b00e000030032000200200001
:1011600003f02300dffd070001f0a2000006be002f
:10117000020020009304240092ff07000801be0033
:10118000d9fd0700809fbe000c00be0022a22a00ed
:10119000d3a723008bff07004f01be00d2fd07003d
:1011a0000004be0001f0a10002002000039823000b
:1011b000f0fe07000800be00190035000001be0067
:1011c00080ff07000006be00b2c52900e3622300cd
:1011d0007cff070022222b00f3942b00c2fd0700a6
:1011e0000c01be0077ff0700e273280083c02300d4
:1011f000bdfd07000c01be0072ff070042aa2a00d5
:10120000a3e22b00b8fd07000c01be006dff070034
:101210000801be006bff07000801be00b2fd070019
:101220000a00a70001f0a2004f06be004f05be0055
:101230004f04be0000000600889fbe008a9fbe00cb
:101240008c1f78000004be0031ff07000478a30063
:1012500026003a006120e1002500320009f8a300d1
:1012600025003a006420e10021003200f507b100ba
:101270000508a30002003200000040008180480001
:101280006044b8000310200002002000000040006d
:10129000818048000805440089854c000a0541000a
:1012a0008b8549000a0550008b85580003003300e8
:1012b0000a00be0002047400838474008301d1001c
:1012c0000281d300830f7100f0ff3a008904d1003e
:1012d0000884d3006001490082017800c1adde00be
:1012e000fb07b000e4fe07002fff37000960a000f5
:1012f0000800be002cff370012022000224988009f
:10130000f0ff2f00f1ff270027ff3700889fbe0066
:101310008a9fbe00841f780012ff07004f007800ec
:1013200011003300f0ff2f00838f6c0006003b009c
:10133000040565000a00a7000800370009f0a600b0
:101340001000200008003700820f5400838f5c00db
:10135000030039001000200001003e0000002000c2
:1013600009f0a7000000ea004f05be004f04be00d0
:101370000000e00000000600881f780003047800e9
:101380000300e00007003d0060001000e08018004e
:1013900060011900e081190002003b0001f02d00fe
:1013a000030037000400070008f0a70001f0a000c8
:1013b0004f04780000000600889fbe008a9fbe0090
:1013c0000082700004027100048271002600320065
:1013d0000004be000200be006011b8006b092000ce
:1013e000950220000182cf000a0039000541b100ba
:1013f0000082cf00070039000541b1000982cf000b
:10140000040039000541b1000882cf000100390015
:101410000541b10005425200120032000a003b00b3
:1014200082817100610164008100d1000080d300dd
:101430008984d3000884d3008b05e8000442e800c7
:10144000f7ff3a00070037000804440089844c0085
:1014500000004800818048008b05e9000442e90053
:10146000f9ff3a0084fe07004f05be004f04be009e
:10147000000006000400200000003700889fbe0026
:101480008a9fbe008c1f78004f26dd00b5fe070046
:10149000bcfe33006120e100430032006250e100f5
:1014a00041003e003e0039006420e1003c00320073
:1014b000058255000f003b000402e80038003a00a6
:1014c000800f5300818f5b00350034000800be00a0
:1014d00003f0a10001f0a60003f0a0000cf0a700ab
:1014e00001fd0700b0fe37000603430087834b0071
:1014f0000c4646000005530081855b000200330066
:101500000a03be000c00a0000402e900f6ff3b0045
:10151000850578000602430087824b0004003a00ec
:101520006000b80009f0a70001f0a0009efe37009f
:101530000002520081825a000704e00004003300d8
:101540000603430087834b008b05e900faff370051
:10155000090578000604be000203be006011b80051
:1015600045fe0700e00f5200e08f5a0007003500eb
:1015700002003c000c08a300040032000601be007b
:1015800003f0a0000cf0a700d7fc07000a85680054
:1015900001f0a1000af0a70001f0a00082fe3700d0
:1015a0000800be0080fe3700100220000cf0a600ec
:1015b0002049880080fe37000004780006003700cc
:1015c00001804000528a8000620078008100e800bb
:1015d000618a880000000100618a8000708a8000b2
:1015e000808f5000f6ff3900000c2100508a8800df
:1015f00020022000708a8800080078008ffc070015
:101600000000e0002f003200c0017800e38f51009d
:101610002c0036000308a3002a003a00918a8000bb
:101620000100e00002003200810f50000400310090
:1016300011009800908a8800160037008200780018
:10164000110190000200e00002003200800f510002
:10165000faff39001102780084824000850f5000a3
:1016600018003900808f520003003a0083084200be
:1016700001007800070037000200e000030032009c
:1016800083014000830f51000e00390012009800c2
:1016900090009800900090000100e00009003200e6
:1016a00010014000828f500006003a000215210010
:1016b0000009eb0010017800110841009100900032
:1016c0001100980000000600889fbe00000478000a
:1016d000818a80000100e0000200320001007800f1
:1016e0000d003700918a800020152100040037008a
:1016f000910f5400250036000180e8009100900011
:101700000100e000faff3a0010003700920f540089
:101710001e0036000280e800100178000200e000a0
:10172000faff3a0011017800918a8000201521000b
:1017300004003700910f5400140036000180e800c7
:1017400091009000828f5000faff3a00a98a800031
:10175000888f540001003100880478000900780067
:10176000440007000000e00004003a00888f5400a5
:10177000050032008904d100f5ff37000918780010
:101780009fff0700d2ff37000000eb004f04be00b0
:1017900000000600881f7800630440000800a100d4
:1017a0008000eb00800f540021003600e30f54004e
:1017b00001003e004800200008007800c2ff07003a
:1017c0008000eb000000e00019003200900078007b
:1017d0009101780064815100880f510003003100ad
:1017e00011019000020878000700370008814000ce
:1017f0000208780091019000130198001001780010
:101800001109140088087800100178000000eb002e
:101810000200e00004003200920190000300e000aa
:10182000010032000280e800808a88008180e800a0
:10183000010078004f047800000006008001780065
:1018400002003700b15978000201e9000200e0000f
:10185000fcff3a000000060080017800020037001b
:10186000815978000201e9000200e000fcff3a0023
:1018700000000600800078000000eb000100e0009e
:101880000500340001007800f4fb0700e10f400080
:0c18900001003a000000eb000000060020
:020000040000fa
:0200000401f009
:04000000e0b9000063
:020000040000fa
:0200000401f009
:04000400ff7f00007a
:020000040000fa
:0200000401f009
:040008007fff000076
:020000040000fa
:0200000401f009
:04001400ffff0000ea
:020000040000fa
:04003400d0010000f7
:020000040000fa
:040060001602000084
:020000040000fa
:040054002c0200007a
:020000040000fa
:0400800096020000e4
:020000040000fa
:04007c00220300005b
:020000040000fa
:04004000ae0300000b
:020000040000fa
:04008800582f0000ed
:020000040000fa
:04008c00f82e00004a
:020000040000fa
:10189c000000fa00b9100700bc1007000000eb00b4
:1018ac00104988000080fa00000006000000fa00d1
:1018bc008040eb0000c4b300bc1007000080fb00ac
:1018cc000080fa00000006000000fa0091c0b3008e
:1018dc0000c4b300b51007000080fb000080fa00c4
:1018ec00000006000200fa0071c0b30000c4b3008f
:1018fc00ae1007001047980081c0b30000c4b300bd
:10190c00aa100700004f78001e4090000080fb00da
:10191c00c800dd001e80fb00008040000080fa0043
:10192c00000006000400fa0011c0b30000c4b300ac
:10193c009e1007003047980021c0b30000c4b300cc
:10194c009a100700204798003e4090000080fb0052
:10195c00c800dd002e4090000080fb00008f40008e
:10196c001e0078000080fa00000006000400fa0057
:10197c0051c0b30000c4b3008c100700304798006e
:10198c0061c0b30000c4b300881007002047980062
:10199c003e4090000080fb00c800dd002e4090000f
:1019ac000080fb00008f40001e0078000080fa00d1
:1019bc00000006000400fa0031c0b30000c4b300fc
:1019cc007a1007003047980041c0b30000c4b30040
:1019dc0076100700204798003e4090000080fb00e6
:1019ec00c800dd002e4090000080fb00008040000d
:1019fc00000f78001e007800cf80de0018fd070075
:101a0c0072712b00138d23006bfd07000080fa0010
:101a1c00000006000600fa001e01be000288be008f
:101a2c00ae019000230098000080fa000000060030
:101a3c000c00fa00300798004107980041c1b30030
:101a4c0000c4b300591007000004e000330032005a
:101a5c000000eb00200798001a0037002e009000c1
:101a6c0000004000f540400000c4b3004f100700d8
:101a7c00104798002e00900000004000f6404000f7
:101a8c0000c4b30049100700004f78002e009000ee
:101a9c0000004000800078003e0090000081400073
:101aac001e4090000080fb00c800dd001e80fb0083
:101abc0000804000000978002e0090000000e80033
:101acc00200798002e009000eb0f5000e3ff34002d
:101adc00d1c2b30000c4b3003410070030479800e3
:101aec00e1c2b30000c4b3003010070020479800d7
:101afc003e4090000080fb00c800dd002e409000ae
:101b0c000080fb00808040004e00900001087800af
:101b1c001000200050079800020037000000eb0076
:101b2c00500798005e0090000080fa00000006004c
:101b3c006400fa002027980031279800422798006b
:101b4c0041c1b30000c4b300181007000004e0004a
:101b5c004f0132000000eb00501798001a003700bc
:101b6c005e10900000004000f540400000c4b3003f
:101b7c000e100700304798005e10900000004000e7
:101b8c00f640400000c4b30008100700204798003e
:101b9c00de1190003e4090000080fb00c800dd008c
:101bac002e4090000080fb0000814000c10220000c
:101bbc008e80400003804100823078005e109000df
:101bcc000000e800501798005e109000eb0f5000da
:101bdc00e3ff34006000b8003017980041179800fc
:101bec006000b80010179800211798000000eb0057
:101bfc00001798000000eb00700f98000040eb00fd
:101c0c00505f98000040eb00405f98000000eb0034
:101c1c00500f9800550037005e089000c10220005c
:101c2c008e80400000004000610f78001e00e00034
:101c3c004b0032001e007800cf80de0088fc0700cd
:101c4c0000379800113798001e00e00007003d0097
:101c5c0002002000037824000e3090009e3090008b
:101c6c001efb070000379800113798005e089000a3
:101c7c00c200dd0080842000008040001001be0006
:101c8c000e3090009e309000cbfc07000001be008f
:101c9c003e109000ce10900010fb070030179800fb
:101cac00411798001e007800cf80de006cfc070006
:101cbc00602f9800712f98001e00e00007003d0077
:101ccc0002002000037824006e289000fe2890006b
:101cdc0002fb0700602f9800712f98005e0890009f
:101cec00c200dd0080872000008040001001be0093
:101cfc006e289000fe289000affc07000001be008b
:101d0c001e109000ae109000f4fa07001017980007
:101d1c00211798000e1090009e0f1000090036003d
:101d2c000e109000700f98005e599000425f980062
:101d3c009e017800031798005e089000505f980091
:101d4c00070037007e0890009e0f1000040036003c
:101d5c001e007800700f98005e089000405f98009d
:101d6c005e0890000000e800500f98005e0890009c
:101d7c00eb0f5000a8ff34006011b8003e1090002b
:101d8c00ce109000f8fb07000000e00001003200cc
:101d9c000a0037006011b8001e109000ae109000c1
:101dac00f1fb07000000e0000100320003003700e7
:101dbc000001eb00522f9800b70037003e11900045
:101dcc00ce1190001e109000ae10900020fb07006a
:101ddc00300f9800410f98000e109000cf80de005d
:101dec001ffc0700302f9800412f98000e10900018
:101dfc000000e00007003d000200200003782400f2
:101e0c003e289000ce289000b4fa0700302f98009e
:101e1c00412f98000e109000cf80de0010fc0700c0
:101e2c00102f9800212f98000e1090000000e00059
:101e3c0007003d0002002000037824001e289000bb
:101e4c00ae289000a5fa0700102f9800212f9800bb
:101e5c001e299000ae2990003e289000ce289000bc
:101e6c0055fc0700100f9800210f98001e099000d8
:101e7c00ae0990001e089000ae0890004efc0700c2
:101e8c00100f9800210f98007e089000cf80de0084
:101e9c00f3fb070070279800012f98007e08900034
:101eac000000e00007003d00020020000378240041
:101ebc007e2090008e28900088fa070070279800ea
:101ecc00012f98007e089000cf80de00e4fb070015
:101edc0050279800612798007e0890000000e000d1
:101eec0007003d0002002000037824005e209000d3
:101efc00ee20900079fa070050279800612798008f
:101f0c005e219000ee2190007e2090008e289000a3
:101f1c0029fc070070079800010f98007e019000c3
:101f2c008e0990007e0090008e08900022fc070025
:101f3c0070079800010f98005e5890000000fb009d
:101f4c00c200dd0080812000008040001001be0036
:101f5c003e089000ce0890005ffa07003efb070099
:101f6c0050079800610798005e019000ee01900008
:101f7c005e009000ee0090000ffc070050079800e8
:101f8c00610798004e5890000000fb00c200dd0075
:101f9c0080812000008040001001be003e089000af
:101fac00ce0890004cfa07002bfb07003007980076
:101fbc00410798003e019000ce0190003e00900039
:101fcc00ce009000fcfb07003007980041079800fa
:101fdc005e019000ee0190001e089000ae0890008b
:101fec001ffb0700100f9800210f98003e01900076
:101ffc00ce0190007e0090008e08900018fb070028
:10200c0070079800010f98007e0190008e099000d7
:10201c001e089000ae08900030fa070083fc070001
:10202c0082fc070073fb0700800078002e209000d4
:10203c0001087800d1c2b30000c4b300db0e070066
:10204c0050479800e1c2b30000c4b300d70e07009c
:10205c00404798005e4090000080fb00c800dd0007
:10206c004e4090000080fb00808040004e2090008d
:10207c00010878003e2090003e099000ce099000a7
:10208c000288be0013002000532f98000200370076
:10209c000000eb00502f98005e2890000080fa00a2
:1020ac00000006000200fa00000f78001e00780005
:1020bc004800de0000417800d1c0b30000c4b3007a
:1020cc00e10e07001e00780000417800e1c0b3006b
:1020dc0000c4b300dc0e07000080fa00000006000c
:1020ec000400fa00004f7800110798001e009000c1
:1020fc00004178009e40780000c4b300d20e070067
:10210c001e0090004800de0000417800d1c0b300f2
:10211c0000c4b300cc0e07001e00900000417800f4
:10212c009e40780000c4b300c70e07000080fa0080
:10213c00000006000000fa000041eb00f1c0b30003
:10214c0000c4b300c00e07000080fa0000000600b7
:10215c000200fa00004f78001e417800c1c0b300a5
:10216c0000c4b300b80e07000080fa00000006009f
:10217c000000fa000041eb0001c1b30000c4b30041
:10218c00b10e07000080fa00000006000200fa0001
:10219c00004f78001e00fb00104988001e4178009b
:1021ac0011c1b30000c4b300a70e07000080fa00f1
:1021bc00000006000000fa0010002000500d07007f
:1021cc000000eb00b07588000000eb00a0758800e3
:1021dc000000eb007076880010002000406b880037
:1021ec000000200001f82b00307688004176880032
:1021fc00800b2000100888000000eb00400d070049
:10220c000080fa00000006000000fa00b0758000a3
:10221c000080fa00000006000000fa00a0758000a3
:10222c00e10f500002003a001000200001003700be
:10223c000000eb000080fa00000006000000fa002d
:10224c00406b8000e10f500002003a0010002000ab
:10225c00010037000000eb000080fa0000000600cf
:10226c000000fa000000eb00b07588000000eb00e5
:10227c00a07588000000eb0070768800fa28ef004b
:10228c000000eb00406b88000080fa0000000600a4
:10229c000000fa00707680000000e00003003200bd
:1022ac00e10f500003003200040037000500070066
:1022bc00020037005f000700000000000080fa00f9
:1022cc00000006000e00fa00370507000004e000cd
:1022dc0051003200ad000700500798005e009000de
:1022ec000000e0004e0035000080eb00000f78008d
:1022fc00de009000917688005e0090000000e00007
:10230c000300350010002000e7000700000f7800e4
:10231c001e007800e10f5000430034000000210043
:10232c00300798000000eb00400798000000eb001d
:10233c0010079800de009000210798001d00370060
:10234c00714780002e00900000004000008040008b
:10235c009000780061079800ee0090004e0090000d
:10236c00808f500002003400ee009000410798006e
:10237c00ee0090003e009000808f500002003d0067
:10238c00ee00900031079800ce0090003e009000c7
:10239c0000805000e90f50000a003c001e00900025
:1023ac000000e800100798002e0090006800400024
:1023bc00200798001e009000ff0f5000e0ff340033
:1023cc0001003700000000009e0090009047800044
:1023dc00008050000002b000230407001000200011
:1023ec00d04788000000eb0080768800de0090006b
:1023fc00917688000000eb00b07588000000eb00bf
:10240c00c075880010002000a07588001000200006
:10241c0070768800050037000000000003003700cc
:10242c000000000001003700000000000080fa00ee
:10243c00000006000600fa00db0407000004e000c0
:10244c004f0032000000eb0097000700000f7800ef
:10245c001e0078000000e00011003d00100020007c
:10246c00b075880010002000c07588000000eb00db
:10247c00a07588000000eb0070768800fa28ef0049
:10248c00a0768000e10f500002003a0049ff0700df
:10249c003c0037000000eb00406b8800390037002f
:1024ac00807680009e00780001417800a1eb20002e
:1024bc0081004000824878000000e80080768800a7
:1024cc0080768000e90f50002e00340037010700a1
:1024dc00c075880010002000b07588000000eb006b
:1024ec00a07588000000eb007076880030768000c4
:1024fc00417680001efa0700000078003f0b0700b1
:10250c003076880041768800907680009b0b07001f
:10251c005076880061768800a0eb2000d40b070071
:10252c001007980021079800c475800095768000ec
:10253c005276800063768000307680004176800091
:10254c0084037800050378000202be000001be007f
:10255c001e009000ae009000a00c0700fa28ef00bf
:10256c00a0768000e10f500002003a0011ff070036
:10257c00040037000000eb00406b880001003700be
:10258c00000000000080fa00000006001000fa00b5
:10259c000000eb00100798000080eb00200798006b
:1025ac000000eb00000f7800340037009e0078002c
:1025bc00310798000000eb00400798000000210054
:1025cc00500798000000eb00600798000000eb003b
:1025dc004007980019003700714780003e009000ba
:1025ec0000004000008040009000780071079800c7
:1025fc00fe0090005e009000808f500003003d00b4
:10260c00fe0090005107980006003700fe00900075
:10261c006e009000808f500002003400fe0090008d
:10262c00610798003e009000680040003007980059
:10263c004e0090000000e800400798004e0090000b
:10264c00ff0f5000e4ff3400ee0090005e0090009d
:10265c00808050001e009000808f500006003400d7
:10266c00ee0090005e009000008050001007980073
:10267c009e007800210798001e0fe8001e007800cd
:10268c00e70f5000c9ff34001e009000e90f500006
:10269c0002003c000080eb00010037002e0090008f
:1026ac000080fa00000006001600fa00200f9800c7
:1026bc0091768000010f98000000eb00000f78006d
:1026cc000e0a9000140798000e0037007147800026
:1026dc001e00900000004000008040009000780038
:1026ec001e00780000024000401021000000420053
:1026fc00010878001e0fe8001e00900068004000e2
:10270c00100798001e007800ff0f5000efff3400f8
:10271c0000002100200798000000eb003007980013
:10272c000000eb00000f78001e0037001e00780040
:10273c008000400040102100008040009000780094
:10274c002e009000808f500007003d001e00780086
:10275c008000400040102100008040009000780074
:10276c00210798000e0037001e0078008000400002
:10277c004010210000804000900078003e00900046
:10278c00808f5000060034001e007800800040004e
:10279c00401021000080400010027800340798009f
:1027ac001e0fe8001e007800ff0f5000dfff340002
:1027bc00be0090002e00900000805000e90f5000e9
:1027cc0002003c000080eb00760037006000b8008f
:1027dc0040079800510798000000eb00000f7800ac
:1027ec000d0037001e0078008000400040102100d2
:1027fc000080400010007800cf80de004e02900078
:10280c00de029000040040008580480040079800dc
:10281c00510798001e0fe8001e007800ff0f5000b3
:10282c00f0ff34004e009000de009000e00f5000ee
:10283c00e08f580002003d007f004000e08048001f
:10284c004b0add004501de0002017200c589de0085
:10285c000200be00100f98000000eb00000f780083
:10286c000d0037001e007800800040004010210051
:10287c0000804000900078001e089000808050007e
:10288c001e007800000140004010210000004100b3
:10289c00010878001e0fe8001e007800ff0f5000a2
:1028ac00f0ff3400208880000000e00003003400ba
:1028bc001000200060079800020037000080eb0039
:1028cc00600798000000eb007007980010002000d3
:1028dc00000f7800190037001e00780080004000bf
:1028ec004010210000804000100078000000e00043
:1028fc00090034006e0090000000e0000e003d0066
:10290c0010002000600798007e0090000000e80096
:10291c0070079800080037006e0090000000e0007f
:10292c00050034000080eb00600798007e009000ea
:10293c000000e800700798001e0fe8001e007800e9
:10294c00ff0f5000e4ff34002e0890000000e00060
:10295c00020032007e009000120037007e009000d2
:10296c00e70f500009003400be0090002e009000cc
:10297c0000805000cf80de0039f9070030768800e7
:10298c00417688000000eb00060037007e009000c6
:10299c00e30f50000200340010002000010037004b
:1029ac000080eb000080fa00000006000600fa0030
:1029bc000000eb00100798000000eb00000f7800ff
:1029cc000b0037001e017800e600410040eb2000b0
:1029dc000080400010407800e14f500003003a00a6
:1029ec001e0090000000e800100798001e0fe80081
:1029fc001e007800e70f5000f2ff34001e01780033
:102a0c00e600410040eb20000080400010407800c0
:102a1c000000fb0000004000800078001e00e80071
:102a2c006601400040eb200000004100104078009f
:102a3c000000fb000080400020079800ae009000d2
:102a4c001e00900000804000630060000080fa00cf
:102a5c00000006000400fa00000f7800110798002f
:102a6c001e007800e30f500067003200e30f5000a7
:102a7c0005003e00e10f500029003200e10f50002c
:102a8c0044003e0009003700e50f5000980032006a
:102a9c00e50f500079003900e60f5000b10032000c
:102aac00e70f5000cc003200e60037001e0090000b
:102abc00e10f50000e003600201680004600de00ac
:102acc00614060000004a200614060000080fb00d7
:102adc00610060004600dd0022168000f1fb2f0033
:102aec0081006100010070002016880097013700fa
:102afc001e00900000407800614060000080fb00e8
:102b0c00610060004600dd0022168000f1fb2f0002
:102b1c008100610001007000201688008b013700d5
:102b2c001e009000e10f50000e00360020168000b1
:102b3c004700de00614060000004a20061406000bc
:102b4c000080fb00610060004700dd002216800061
:102b5c00f1f72f0081006100010070002016880041
:102b6c007a0137001e009000004078006140600040
:102b7c000080fb00610060004700dd002216800031
:102b8c00f1f72f0081006100010070002016880011
:102b9c006e0137001e009000e10f50000e00360051
:102bac00201680004900de00614060000004a20095
:102bbc00614060000080fb00610060004900dd00a6
:102bcc0022168000f1df2f008100610001007000ef
:102bdc00201688005d0137001e0090000040780030
:102bec00614060000080fb00610060004900dd0076
:102bfc0022168000f1df2f008100610001007000bf
:102c0c0020168800510137001e009000e10f500083
:102c1c000e003600201680004c00de006140600083
:102c2c000004a200614060000080fb0061006000b5
:102c3c004c00dd0022168000f1ff2e0081006100a7
:102c4c000100700020168800400137001e00900023
:102c5c0000407800614060000080fb006100600073
:102c6c004c00dd0022168000f1ff2e008100610077
:102c7c000100700020168800340137001e009000ff
:102c8c00e10f50000e003600201680004a00de00d6
:102c9c00614060000004a200614060000080fb0005
:102cac00610060004a00dd0022168000f1bf2f0099
:102cbc00810061000100700020168800230137009c
:102ccc001e00900000407800614060000080fb0016
:102cdc00610060004a00dd0022168000f1bf2f0069
:102cec008100610001007000201688001701370078
:102cfc001e009000e10f50000e00360020168000e0
:102d0c004d00de00614060000004a20061406000e4
:102d1c000080fb00610060004d00dd002216800089
:102d2c00f1ff2d0081006100010070002016880069
:102d3c00060137001e0090000040780061406000e2
:102d4c000080fb00610060004d00dd002216800059
:102d5c00f1ff2d0081006100010070002016880039
:102d6c00fa0037001e009000e10f50000e003600f4
:102d7c00201680004e00de00614060000004a200be
:102d8c00614060000080fb00610060004e00dd00cf
:102d9c0022168000f1ff2b00810061000100700001
:102dac0020168800e90037001e00900000407800d3
:102dbc00614060000080fb00610060004e00dd009f
:102dcc0022168000f1ff2b008100610001007000d1
:102ddc0020168800dd0037001e009000e10f500027
:102dec000d003600201680004f00de0000407800f9
:102dfc000004a200614060000080fb004f00dd0079
:102e0c0022168000f1ff2700810061000100700094
:102e1c0020168800cd0037001e009000004078007e
:102e2c00614060000080fb004f00dd002216800036
:102e3c00f1ff27008100610001007000201688005e
:102e4c00c20037001e009000e10f500068003600f1
:102e5c00201680004600de00614060000004a200e5
:102e6c00614060000080fb00610060004600dd00f6
:102e7c0022168000f1fb2f00810061000100700020
:102e8c0020168800201680004700de00614060009c
:102e9c000004a200614060000080fb006100600043
:102eac004700dd0022168000f1f72f008100610041
:102ebc000100700020168800201680004900de00fa
:102ecc00614060000004a200614060000080fb00d3
:102edc00610060004900dd0022168000f1df2f0048
:102eec00810061000100700020168800201680000f
:102efc004c00de00614060000004a20061406000f4
:102f0c000080fb00610060004c00dd002216800098
:102f1c00f1ff2e0081006100010070002016880076
:102f2c00201680004a00de00614060000004a20010
:102f3c00614060000080fb00610060004a00dd0021
:102f4c0022168000f1bf2f0081006100010070008b
:102f5c0020168800201680004d00de0061406000c5
:102f6c000004a200614060000080fb006100600072
:102f7c004d00dd0022168000f1ff2d008100610064
:102f8c000100700020168800201680004e00de0024
:102f9c00614060000004a200614060000080fb0002
:102fac00610060004e00dd0022168000f1ff2b0056
:102fbc00810061000100700020168800201680003e
:102fcc004f00de00004078000004a2006140600069
:102fdc000080fb004f00dd0022168000f1ff27006f
:102fec008100610001007000201688005700370036
:102ffc001e00900000407800614060000080fb00e3
:10300c004f00dd0022168000f1ff270081006100d7
:10301c000100700020168800201680004f00de0092
:10302c00004078000080fb00610060004e00dd0075
:10303c0022168000f1ff2b0081006100010070005e
:10304c0020168800201680004e00de0061406000d3
:10305c000080fb00610060004d00dd002216800046
:10306c00f1ff2d0081006100010070002016880026
:10307c00201680004d00de00614060000080fb00e7
:10308c00610060004a00dd0022168000f1bf2f00b5
:10309c00810061000100700020168800201680005d
:1030ac004a00de00614060000080fb0061006000af
:1030bc004c00dd0022168000f1ff2e008100610023
:1030cc000100700020168800201680004c00de00e5
:1030dc00614060000080fb00610060004900dd0081
:1030ec0022168000f1df2f008100610001007000ca
:1030fc0020168800201680004900de006140600028
:10310c000080fb00610060004700dd00221680009b
:10311c00f1f72f008100610001007000201688007b
:10312c00201680004700de00614060000080fb003c
:10313c00610060004600dd0022168000f1fb2f00cc
:10314c008100610001007000201688000080fa00e8
:10315c00000006000200fa00000f78001e00780044
:10316c00e10f50000e003600801680004200de0099
:10317c00614060000004a200614060000080fb0020
:10318c00610060004200dd0082168000b1ff2f005c
:10319c008100610001007000801688000b00370070
:1031ac001e00780000407800614060000080fb0049
:1031bc00610060004200dd0082168000b1ff2f002c
:1031cc008100610001007000801688000080fa0008
:1031dc00000006000200fa00000f78001e007800c4
:1031ec00e10f50000e003600801680000000d10068
:1031fc00614060000004a200614060000080fb00a0
:10320c00610060000000400082168000d1ff2f009a
:10321c008100610001007000801688000b003700ef
:10322c001e00780000407800614060000080fb00c8
:10323c00610060000000400082168000d1ff2f006a
:10324c008100610001007000801688000080fa0087
:10325c00000006000000fa00c4c2a900c4e2a900e4
:10326c00c522a900c582a900c542a900c5a2a90012
:10327c00c5c2a900c5e2a9000080fa000000060042
:10328c000200fa00f628ef00fe28ef00fa28ef0003
:10329c0010002000c04788000000eb00000f7800f1
:1032ac00190037001e0078008000400060d5200017
:1032bc00008040008000eb00010878001e007800c0
:1032cc008000400060d32000008040008000eb00b4
:1032dc00010878001e0078008000400060d22000b9
:1032ec00008040008000eb00010878001e00780090
:1032fc008000400060d42000008040008000eb0083
:10330c00010878001e0fe8001e007800e70f50003f
:10331c00e4ff3400fc28ef00609220006047880036
:10332c0060b2200070478800a022ef00a222ef00bc
:10333c00a422ef00a622ef00a802a800a822a80051
:10334c00a842a900a862a900a882a900a8a2a90065
:10335c00a8c2a900a8e2a900a902a900a922a90053
:10336c00a942a900a962a900a982a900a9a2a90041
:10337c00a9c2a900a9e2a900aa02a900aa22a9002f
:10338c00aa42a900aa62a900aa82a900aaa2a9001d
:10339c00aac2a900aae2a900ab02a800ab22a8000d
:1033ac00ab42a800ab62a800ab82a800aba2a800fd
:1033bc00abc2a800abe2a80001158000f0cf2f0033
:1033cc000080600000158800a042a8000115800054
:1033dc00000e2000010070000015880011158000ff
:1033ec0030fc2f0000806000c001b3001015880075
:1033fc00a342a80021158000f00f2e000080600071
:10340c000080a000201588002115800000fc2f00f2
:10341c00008060003001b300201588008560a90091
:10342c008d60a800c104800000002700010070001e
:10343c00c0048800a1e2a8000080fa000000060089
:10344c000000fa00a1e2a8008d60a8000080fa003c
:10345c00000006000000fa00f228ef00f068ef0010
:10346c000080fa00000006000200fa00000f78004d
:10347c009e007800a1478800f228ef00f068ef006a
:10348c000080fa00000006000000fa00a1e2a9008a
:10349c008d60a9000080fa00000006000200fa000e
:1034ac00e0478000e10f50001e003200a047800072
:1034bc000000e00004003400a04780000000e90098
:1034cc00a0478800180037006147800090478000b3
:1034dc004400dd0000804000020120000128200093
:1034ec00d3f80700904780000000e8009047880060
:1034fc0090478000ff0f50000b003600f228ef00c1
:10350c0010c0b300f0e8b70071478000010f7800dd
:10351c0060478000704788009e00780061478800f3
:10352c0001003700000000000080fa0000000600d7
:10353c001200fa00004880000000e80000488800f3
:10354c000148800010488000808f500093003500a7
:10355c000029ef0020488000e30f500003003400e6
:10356c00bcff0700f628ef008d0037000e80e80046
:10357c000201200001282000adf80700214880003e
:10358c00010f7800304880000000e0002f003a0066
:10359c001e00780000004000000047001000900062
:1035ac00800078001e0078000001400060d22000ee
:1035bc0000004100010878001e0178006400410001
:1035cc009e017800e480410081804000810047002a
:1035dc00910090000001400060d2200000004100ea
:1035ec00010878001e007800e10f50000c0032003a
:1035fc00e10f500003003c000000e0000600320028
:10360c000d003700e20f500007003200e30f5000ae
:10361c000700320008003700e2e2a800060037007d
:10362c00e302a80004003700e802a80002003700fb
:10363c00e822a8000000000010002000304888009c
:10364c004000200010488800550037001e0078000c
:10365c00000040000000470010009000800078003f
:10366c001e0078000001400060d3200000004100e3
:10367c00010878009e007800648040001e017800ec
:10368c00e4004100818040008100470091009000df
:10369c000001400060d320000000410001087800c8
:1036ac001e0078008000400060d2200000804000a6
:1036bc00900078001e0078000001400060d32000cc
:1036cc000000410010007800808050001e0078003f
:1036dc000001400060d42000000041000108780087
:1036ec009e017800648041001e017800e4004100d6
:1036fc000181400061d2200081004100110178005d
:10370c009e017800e48041008181400061d320005b
:10371c00818041009100780081005100000140003f
:10372c0060d4200000004100010878001e007800e1
:10373c00e10f50000c003200e10f500003003c0080
:10374c000000e000060032000d003700e20f5000d0
:10375c0007003200e30f500007003200080037006a
:10376c00e2e2a90006003700e302a90004003700da
:10377c00e802a90002003700e822a90000000000be
:10378c000629ef00204880000000e800204888004f
:10379c00a001200010488800010037000000000044
:1037ac000080fa00000006000200fa00018f2000e1
:1037bc0091407800014f7800f068ef001e407800cf
:1037cc000080fa00000006000200fa00000f7800ea
:1037dc001e0078008000400060d420000080400073
:1037ec00100078000080fa00000006000200fa00c9
:1037fc00000f78001e0078008000400060d420008c
:10380c0000804000900078001e007800000140000d
:10381c0060d52000000041001000780000805000ae
:10382c000080fa00000006000200fa00000f780089
:10383c001e0078008000400060d220000080400014
:10384c00100078000080fa00000006002400fa0046
:10385c0064004700020220008000eb00fbf7070029
:10386c000000eb001007980030003700fe28ef0036
:10387c0010002000d047880010002000e04788008e
:10388c0000000000b0478000e10f5000fdff320047
:10389c000029ef00a0012000104888000629ef0045
:1038ac000429ef0010002000b04788000000000041
:1038bc00b0478000e10f5000fdff32000000eb002c
:1038cc00000f7800130037001e0078004200dd0066
:1038dc00e4004700008040001001be001e0078008c
:1038ec008000400060d42000008040001000780070
:1038fc00cf80de0002004000838048001e0178006b
:10390c004211dd0002014700640141000089be0044
:10391c001e0fe8001e007800e70f5000eaff34008d
:10392c001e0090000000e800100798009e00900018
:10393c0030062000808f5000ccff3400fa28ef00b6
:10394c00fc28ef000000eb00000f7800110037009e
:10395c001e0078004200dd00e400470000804000bb
:10396c001000be003ef5070002002000832c24004e
:10397c00bbf40700fef40700800078001e007800fe
:10398c000001400060d520000000410001087800d3
:10399c001e0fe8001e007800e70f5000ecff34000b
:1039ac000080fa00000006000000fa008080a900e8
:1039bc000080fa00000006000400fa000000eb0092
:1039cc00000f78000b003700000000000e80e800ac
:1039dc00440907000000e000fcff32000106210052
:1039ec001e00780000804000ae4090000148780036
:1039fc001e0fe8001e007800eb0f5000f2ff36009f
:103a0c0000df210000000100a0062100904078009a
:103a1c0020c5b30080cf500002003a000000eb003c
:103a2c0001003700100020000080fa0000000600a2
:103a3c000400fa000000eb00000f78000b003700c8
:103a4c00000000000e80e800260907000000e000de
:103a5c00fcff3200a19120001e0078000080400085
:103a6c00ae409000014878001e0fe8001e00780060
:103a7c00e30f5000f2ff3600a0d42100000001003b
:103a8c000080fa00000006000000fa001bc9bf000d
:103a9c000004e000070032000040eb007cf7070058
:103aac001ac9bf00aaf907000040eb00b7f90700dc
:103abc00aff907000000eb00208388000000eb004a
:103acc00808588000080fa00000006000400fa00df
:103adc000000eb00000f78000a0037001e00780091
:103aec0039ff0700800078001e0178006400410057
:103afc00000140008007210000004100010878000f
:103b0c001e0fe8001e007800e70f5000f3ff340092
:103b1c00001780000000d100614060000080fb00b5
:103b2c00808488000000eb00000f78000a0037004a
:103b3c001e0078003cff0700800078001e01780012
:103b4c00740041000001400080072100000041008a
:103b5c00010878001e0fe8001e007800e70f5000e7
:103b6c00f3ff34001bc9bf000004e0001100320059
:103b7c000040eb00204798004cf7070020479800c6
:103b8c002e4090000080fb00808588002e40900025
:103b9c000004e0000700320074f70700d0838800af
:103bac0084f70700e0838800f18388005df7070045
:103bbc00c08388008007210081042000ab08070027
:103bcc00b60807000000e000fdff3a000080fa0094
:103bdc00000006000200fa00618380000083800070
:103bec00808f5000020032000083800081070700a4
:103bfc007183800010838000808f5000020032009f
:103c0c0010838000a00707000000eb00000f780075
:103c1c001100370020072100104078008080fb0045
:103c2c0060062100104078000080fb008080680056
:103c3c001e0078000088de00610060000040780003
:103c4c000004e00003003200010120001e00780097
:103c5c0080fb07001e0fe8001e007800e70f5000e5
:103c6c00ecff340030072100104078008080fb000e
:103c7c0070062100104078000080fb000080680076
:103c8c0061006000004078000004e0000200320097
:103c9c00000120004ffd0700300721001040780084
:103cac008080fb0070062100104078000080fb0033
:103cbc0000806800620060000000e000020032003a
:103ccc000001200023fd07001bc9bf000004e00019
:103cdc000200320020838000f2f807000006210069
:103cec00c1062100b0187800a0107800e4804000d4
:103cfc0064004000b0187800a0107800e480400008
:103d0c0064004000b0187800a0107800e4804000f7
:103d1c00640040000080fa00000006000e00fa006b
:103d2c006000b8006011b800009fbe000297be0092
:103d3c006000b8006011b800009fbe000297be0082
:103d4c000b003700000000003e02be002e03be0038
:103d5c0010002000010020006011b800001f42007c
:103d6c00019f4a00021f4b00038f4b006e00b100f5
:103d7c00f0672900810920006011b8003e02be00e6
:103d8c002e03be000020e10001a8e10002b0e1001a
:103d9c0003b8e100ebff3400cd07070038fd070046
:103dac00100707004d0407005c080700a7fe07007a
:103dbc00720707000000eb00400798006000b80095
:103dcc0050079800610798008000eb0080002000ed
:103ddc0020fb07000000eb00400798001b00370099
:103dec00110020004e0090001afb07006000b80084
:103dfc00500798006107980007003700000000008a
:103e0c005e009000ee00900061004000e0804800f1
:103e1c0050079800610798005e019000ee01900039
:103e2c00f069280011002000800f5100818f59008b
:103e3c00f2ff34008000eb004e00900005fb070001
:103e4c004e0090000000e800400798004e009000e3
:103e5c00e70f5000e2ff34008000eb0080002000f0
:103e6c00fcfa0700003a8000610060000000e000ee
:103e7c00020032004007a9000000fe000080fa009a
:103e8c00000006001a00fa00a4ff0700010037002a
:103e9c00000000000000eb00000f78006000b8008c
:103eac0010079800210798000000eb0030079800dd
:103ebc008000eb0080002000e6fa07003500370098
:103ecc003e0090000000e80030079800be00900013
:103edc00a000200000017800110009008200d80029
:103eec008000fd000000e0000d003a009e00e8009c
:103efc0070002800008060000000e00004003d001d
:103f0c000000e90081ff2f00008070000000e80035
:103f1c00000f7800110020001e007800cdfa070079
:103f2c006000b800100798002107980007003700c0
:103f3c00000000001e009000ae00900061004000e8
:103f4c00e080480010079800210798001e0190009f
:103f5c00ae019000f069280011002000800f510084
:103f6c00818f5900f2ff3400be009000a0002000a9
:103f7c0000017800110009008200d8008000fd00cb
:103f8c000000e00003003a008000eb001e00780007
:103f9c00b0fa070068004700d20707000000e000f5
:103fac00c7ff3200a2fe070058050700e305070013
:103fbc0080f807000100370000000000c40507006e
:103fcc00c2fe07007cfe07000000e000b0ff3200dc
:103fdc0080062100104078000004e000f6ff32005b
:103fec00c305070073f80700900621001040780005
:103ffc000080fb008000eb00ae0107000000000019
:10400c003d0207000000e000fdff32006000b80038
:10401c0010079800210798000700370000000000e7
:10402c001e009000ae00900061004000e08048004f
:10403c0010079800210798001e019000ae01900017
:10404c00f0342c0001002000800f5100818f5900aa
:10405c00f2ff34006a004700220607004e08900069
:10406c000000e00012003a0010002000908588004b
:10407c005e009000ee00900080407800400b210024
:10408c00014878001e089000ae089000e08588007a
:10409c00f18588007e0090008e089000c085880015
:1040ac00d18588003e089000b0858800c3ff37009a
:1040bc000000eb0090858800c0ff37000000fa007c
:1040cc000000000030108000610060000000e00083
:1040dc00fcff3a0030108000640060000000e0003b
:1040ec00f8ff3a0030108000680060000000e0002b
:1040fc00f4ff3a0030108000700060000000e00017
:10410c00f0ff3a00411080000000240000806000a5
:10411c000000e000ebff3a000080fa00000006000f
:10412c000400fa00600920002010880007e2a900b2
:10413c0007e2a80085c0a90085a0a900d1048000d1
:10414c00f08f2f0080806000005020000100700074
:10415c00d00488008da0a90000712200010020006d
:10416c00008fbe00040037000081eb008081eb0063
:10417c001e0f41005e9749001e00be00e00f50006c
:10418c00e08f5800f8ff3a0010c0b3000080fa002e
:10419c00000006000400fa006000b800008fbe00aa
:1041ac0007e2a90085c0a90085a0a9008da0a900df
:1041bc000071220001002000008fbe0004003700b7
:1041cc000081eb008081eb001e0f41005e974900df
:1041dc001e00be00e00f5000e08f5800f8ff3a00c0
:1041ec00cfff07000f000700007122000100200024
:1041fc00008fbe00040037000081eb008081eb00d3
:10420c001e0f41005e9749001e00be00e00f5000db
:10421c00e08f5800f8ff3a0010c0b3000080fa009d
:10422c00000006000000fa0085c0a9008dc0a8009f
:10423c0010c0b3000080fa00000006000000fa0075
:10424c0085c0a9008dc0a90010c0b3000080fa0081
:10425c00000006000400fa0010c0b3001ee9b7000d
:10426c0040108000700060000000e000140032007c
:10427c000602a8000071220001002000008fbe0081
:10428c00090037001ec9bf000004e00002003a001c
:10429c0010c0b3000b0037000081eb008081eb00f5
:1042ac001e0f41005e9749001e00be00e00f50003b
:1042bc00e08f5800f3ff3a000040eb00010037009c
:1042cc000040eb000080fa00000006000400fa0039
:1042dc0060c0b3001ee9b7004010800068006000a9
:1042ec000000e000140032000622a8000071220039
:1042fc0001002000008fbe00090037001ec9bf005e
:10430c000004e00002003a0010c0b3000b003700bc
:10431c000081eb008081eb001e0f41005e9749008d
:10432c001e00be00e00f5000e08f5800f3ff3a0073
:10433c000040eb00010037000040eb000080fa0069
:10434c00000006000400fa0050c0b3001ee9b700dc
:10435c000642a8000071220001002000008fbe0060
:10436c00090037001ec9bf000004e00002003a003b
:10437c0010c0b300090037000081eb008081eb0016
:10438c001e0f41005e9749001e00be00e00f50005a
:10439c00e08f5800f3ff3a000040eb000080fa0079
:1043ac00000006000400fa0030c0b3001ee9b7009c
:1043bc0030108000610060000000e00010003a0046
:1043cc0030108000640060000000e0000c003a0037
:1043dc0030108000680060000000e00008003a0027
:1043ec0030108000700060000000e00004003a0013
:1043fc0030108000620060000000e000020032001b
:10440c000040eb001400370006a2a9000682a800a9
:10441c000071220001002000008fbe00090037004f
:10442c001ec9bf000004e00002003a0010c0b30037
:10443c00090037000081eb008081eb001e0f41006a
:10444c005e9749001e00be00e00f5000e08f580040
:10445c00f3ff3a000040eb000080fa000000060079
:10446c000400fa0030c0b3001ee9b7003010800021
:10447c00610060000000e00010003a003010800085
:10448c00640060000000e0000c003a003010800076
:10449c00680060000000e00008003a003010800066
:1044ac00700060000000e00004003a003010800052
:1044bc00620060000000e000020032000040eb00ef
:1044cc001400370006a2a8000682a8000071220082
:1044dc0001002000008fbe00090037001ec9bf007c
:1044ec000004e00002003a0010c0b30009003700dd
:1044fc000081eb008081eb001e0f41005e974900ac
:10450c001e00be00e00f5000e08f5800f3ff3a0091
:10451c000040eb000080fa00000006000800fa00e2
:10452c00300798000071220001002000008fbe00af
:10453c000040eb004047980040c0b3001ee9b700b4
:10454c000071220001002000008fbe001c0037000b
:10455c0030108000610060000000e00014003a00a0
:10456c0030108000640060000000e00010003a0091
:10457c0030108000680060000000e0000c003a0081
:10458c0030108000700060000000e00008003a006d
:10459c004110800000002400008060000000e0005a
:1045ac0003003a0010c0b3004047980008003700e1
:1045bc000081eb008081eb001e0f41005e974900eb
:1045cc001e00be00e00f5000e08f5800e0ff3a00e4
:1045dc004e4090000004e00002003a000040eb0066
:1045ec00170037000662a800006a2800110020009e
:1045fc00008fbe000d0037001ec9bf000004e00094
:10460c0006003a0000108000804078003e009000c8
:10461c000148780010c0b300090037000081eb009e
:10462c008081eb001e0f41005e9749001e00be000a
:10463c00e00f5000e08f5800efff3a000040eb0015
:10464c000080fa00000006000600fa0040479800bf
:10465c0020c0b3001ee9b7004e4090000000fb00e4
:10466c00101088000071220001002000008fbe0095
:10467c00090037001ec9bf000004e00002003a0028
:10468c0010c0b300090037000081eb008081eb0003
:10469c001e0f41005e9749001e00be00e00f500047
:1046ac00e08f5800f3ff3a000040eb000080fa0066
:1046bc00000006000400fa00008fbe00100020006d
:1046cc000f040700406b8000e10f500004003a001b
:1046dc00e3f6070010002000307a88000200370053
:1046ec000000eb00307a880067fb07001000200008
:1046fc00d04788001e00be000d0007000000eb0034
:10470c00b07688000000eb00807788000000eb009a
:10471c0040778800d200070020002000406b880002
:10472c000000eb00f60307000080fa000000060012
:10473c001400fa00000f9800110f98006400470055
:10474c00000178000e0890009e08900014030700ea
:10475c000000eb00100798000000eb00000f780041
:10476c0009003700640047001e004000104078002c
:10477c00e14f500003003a001e0090000000e800da
:10478c00100798001e0fe8001e007800e70f50007d
:10479c00f4ff34009e009000300028000080600080
:1047ac000000e00004003d000000e900c1ff2f0004
:1047bc00008070000000e800100798001e009000b8
:1047cc0064001000100798001e0090000040780054
:1047dc0061406000504f98001e0090000080d10096
:1047ec000040780061406000404f9800900020002d
:1047fc00000f7800070037001e80e800e400470037
:10480c009e80400091407800000047004140980095
:10481c001e0fe9001e0078000000e000f6ff3d00ce
:10482c000040eb00404798000040eb0050479800d8
:10483c000000eb00000f78002a00370064004700ee
:10484c001e004000104078000004e00010003a0008
:10485c00b0778000c17780009e0178006a814100aa
:10486c00c211dd0062ed2000028141000089be0012
:10487c0091778000c20220001e0041000001400020
:10488c0060ed2000000041000108780014003700a2
:10489c00640047001e00400010407800e14f5000bb
:1048ac000f003a00d0778000e17780009e017800fd
:1048bc006a814100c211dd0062ed200002814100dd
:1048cc000089be00a1778000c20220001e004100ba
:1048dc000001400060ed200000004100010878005c
:1048ec001e0fe8001e007800eb0f5000d3ff3400c1
:1048fc000080fa00000006000000fa00b07680008c
:10490c000080fa00000006000000fa00406b8000f6
:10491c00e20f500002003a001000200001003700a6
:10492c000000eb000080fa00000006000000fa0016
:10493c00407780000000e00020003a0020778000e3
:10494c000000e00005003a00e822a800e802a800f8
:10495c00e302a800e2e2a8001500370030778000df
:10496c00e10f50000c003200e10f500003003c003e
:10497c000000e000060032000d003700e20f50008e
:10498c0007003200e30f5000070032000800370028
:10499c00e2e2a80006003700e302a800040037009a
:1049ac00e802a80002003700e822a800000000007e
:1049bc0010002000407788001f003700207780000f
:1049cc000000e00005003a00e822a900e802a90076
:1049dc00e302a900e2e2a90015003700307780005d
:1049ec00e10f50000c003200e10f500003003c00be
:1049fc000000e000060032000d003700e20f50000e
:104a0c0007003200e30f50000700320008003700a7
:104a1c00e2e2a90006003700e302a9000400370017
:104a2c00e802a90002003700e822a90000000000fb
:104a3c000000eb0040778800507780000000e80011
:104a4c00507788005177800060778000808f50000d
:104a5c0001003500020007000080fa00000006008b
:104a6c000000fa0080778000eb0f500016003c002d
:104a7c000000eb0050778800807780006a004000cf
:104a8c00c200dd0060ed2000008040001000be0080
:104a9c00d8f00700000078001008880080778000ac
:104aac00c1022000808040000181400061ed2000a7
:104abc008100410091007800617788000000e800d7
:104acc008077880011003700e822a900e802a900cd
:104adc00e302a900e2e2a90010002000b0768800f1
:104aec00800b2000100888000000eb00406b880051
:104afc00fa28ef00307a8000e10f500001003a00f4
:104b0c00acf5070053fa07004dfa07000080fa00d5
:044b1c00000006008f
:020000040000fa
:104b20006010000060000000000000001a09000092
:104b30000400000000000000660d0000e20100001b
:104b40000000000004110000400000000000000010
:104b5000480f000018010000020000003c91bf0057
:104b600040fd2200ad40e400cb9640007d926a00fb
:104b700040378d002740d8000fc93f00f2665f0024
:104b80003fd9e900973eb800dc5c45007778030028
:104b900045baed008d444a00742f44008b4cfe0052
:104ba000436de700bb435a00a498430039348400a6
:104bb0004383e0004e43270071274300fc090900ae
:104bc00043ae8700e242660026b74200e3659e00de
:104bd00042d9ce008a4214002e844200a8c64d005d
:104be00042c5200030422700311a4200c3f50b00b5
:104bf000425a6400fd41f400fddf41004260cf00f5
:104c0000414a0c00bb415400e3af4100ec51a0000d
:104c1000418b6c0092416f001289410060e5800079
:104c200041c3f50068410000002041000000f00091
:104c3000400000000041000000084100000010009a
:104c40004100000018410000002041000000280041
:104c500041000000304100000038410000004000e9
:104c60004100000048410000005041000000580091
:104c70004100000060410000006841000000700039
:104c800041000000784100000080410000008400e5
:104c90004100000088410000008c410000009000ad
:104ca00041000000944100000098410000009c0079
:104cb00041000000a041000000a441000000a80045
:104cc00041000000ac41000000b041000000b40011
:104cd0004100000044110000060000000000000038
:104ce0001e0900000200000000000000260900006c
:104cf0004004000000000000ec0800001c00000060
:104d000000000000080900000c0000000000000086
:104d10002009000002000000000000000008000060
:104d2000a8000000020000000f003200004b00004d
:104d300069008500009f00005bff7900ff97ff007e
:104d4000b3ffce00fff1ff00850a86003ef9660042
:104d50005f3f37008da73f008192ea003ffc8f0044
:104d60001440cc009a314000874e3800c0e2cb009e
:104d700016c0810092eabf000305ac00bff96600cf
:104d80005fbf85000a86be00ed4677003fc18d00fb
:104d9000243fed0083843e00ed838400be6c9700c9
:104da0002ebf1900ff6ebf00ed467700bff704006d
:104db00035bfed008384be008e5966003ec18d0074
:104dc000243fed0046773f00ed8384003e761b00d4
:104dd000443fed0046773f00ed4677003f043a0040
:104de0003b3f03007cb73e00ed838400bef7040028
:104df00035bfed004677bf0050707900bf761b00cd
:104e000044bfed008384be002209000002000000c0
:104e100000000000a808000044000000020000009c
:104e20000000000000000000000000000000000082
:104e30000000000000000000000000000000000072
:104e40000000000000000000000000000000000062
:104e50000000000000000000000000000000000052
:104e60000000000000000000000000000000000042
:104e70000000000000000000000000001409000015
:104e8000060000000200000000000000000000001a
:104e90002409000002000000000000004a11000088
:104ea0000600000002000000c010220000220000e6
:104eb000c010000044000000000000005411000079
:104ec0000200000002000000040000005011000079
:104ed0000400000000000000561100000200000065
:084ee0000000000000000000ca
:020000040000fa
:104ee8000000fa001021ef0081088000f0fc2f007c
:104ef80000806000800888000621ef00205c200008
:104f08006008880084c0a9008cc0a80011e1a8002e
:104f18000080fa00000006000000fa0011e1a90074
:104f28000080fa00000006000600fa00100798004a
:104f38002107980001498000010f78000a00370016
:104f48001e007800b00090001e009000808f500076
:104f580002003a0010002000200037001e007800f0
:104f6800c0009000010f78001e0078000000e000eb
:104f7800f3ff3a00a000200004f20700000f7800b9
:104f88001e0078000000e00002003a001000200037
:104f980087f10700ae0090001e0078000108780035
:104fa8001e0078008000eb00110098001e007800b9
:104fb80011c0b300414098001e0078009e00900088
:104fc80031009800014980001e00780041009800d7
:104fd8009e00780001498800100020000080fa0037
:104fe800000006000600fa00200798000000eb0009
:104ff800000f780001498000110798001900370058
:105008001e009000b00090002e009000808f50008d
:105018000f003a001e0078000000e0000500320092
:105028001e009000c00090001e007800410098000b
:10503800030037001e0090004000900000498800df
:105048001e0090006cf107001000200009003700d6
:105058009e009000010f78001e009000c000900094
:10506800110798001e0090000000e000e4ff3a00dd
:10507800200020000080fa00000006000600fa0068
:10508800100798002107980001498000010f780057
:105098000d0037001e007800b00090001e00900040
:1050a800808f500005003a00ae0090001e00780086
:1050b8000108780010002000070037001e00780063
:1050c800c0009000010f78001e0078000000e0008a
:1050d800f0ff3a00200020000080fa0000000600df
:1050e8000400fa001007980001498000010f7800b9
:1050f8000d0037001e007800b00090001e009000e0
:10510800808f500005003a001e0078008000eb00f8
:105118001100980010002000070037001e007800da
:10512800c0009000010f78001e0078000000e00029
:10513800f0ff3a00200020000080fa00000006007e
:105148000400fa001007980001498000010f780058
:105158000d0037001e007800b00090001e0090007f
:10516800808f500005003a001e0078008040eb0058
:105178004140980010002000070037001e0078000a
:10518800c0009000010f78001e0078000000e000c9
:10519800f0ff3a00200020000080fa00000006001e
:1051a8000400fa001007980001498000010f7800f8
:1051b8000d0037001e007800b00090001e0090001f
:1051c800808f500005003a001e00780011c0b3001f
:1051d8004140980010002000070037001e007800aa
:1051e800c0009000010f78001e0078000000e00069
:1051f800f0ff3a00200020000080fa0000000600be
:105208000800fa00889fbe008a9fbe0030079800f9
:105218000000eb00000f7800010037001e0fe800c7
:105228003e009000cf80de000eef07000002be00b7
:105238001e007800c200dd0080f6200000804000db
:105248001000be0018c0b3000001be000400be007c
:10525800c6ee07000000e000010035000044eb0046
:105268000804e000edff3a001e0078000000e000ae
:1052780005003a00227f8000337f800012079800e3
:1052880023079800380037001e00e900c200dd003f
:1052980040fe2000008040001004be001e00780080
:1052a800c200dd0040fe2000008040001002be0069
:1052b8001e00e900c200dd0040fe20000080400022
:1052c8001000be000001be000400be0083ed070010
:1052d8000005be003e009000cf80de00e1ee070032
:1052e8000002be001e007800c200dd0080f620002b
:1052f800008040001000be000001be000400be0097
:1053080076ed07000001be000a00be002bef070083
:105318000005be001e00e900c200dd0080f6200086
:10532800008040001002be001e007800c200dd00b0
:1053380080f62000008040001000be000001be0082
:105348000400be0065ed07000001be000a00be00b3
:1053580044ee07000001be000800be0060ed070033
:1053680010079800210798001e009000ae009000da
:105378004f05be004f04be000080fa000000060082
:105388000200fa00000f78001e007800c200dd005d
:1053980080f42000008040001000be000080fa0069
:1053a800000006000800fa0010079800210798007e
:1053b8003207980070002000000f7800280037009e
:1053c8001e007800be009000008240001e01900080
:1053d800ae01900010002000010028008202780031
:1053e8000301780080017800010078008382620060
:1053f800000061006101b800c011dd00020020005a
:105408000200be006129b8000200700083807000ad
:10541800e00f5000e08f580008003d006100500088
:10542800e0805800e2ff2f00f3ff2f000200700019
:105438008380700061004000e080480000407800f0
:10544800004a78001e009000ae0090008180d100d4
:105458000080d30010079800210798001e0fe9006c
:105468001e0078000000e000d5ff3d000080fa0033
:10547800000006000800fa00300798006000b80035
:10548800008fbe000000eb00200798000f003700d7
:105498001e00be000000400081804800008fbe0052
:1054a8002e009000be009000008040001040780060
:1054b8000000fb00cf80de001e0f40005e97480012
:1054c8002e0090000000e800200798002e009000b1
:1054d800e70f5000eeff34001e00be000080fa0007
:1054e800000006000000fa008075800091758000b9
:1054f8000080fa00000006000000fa006000b80012
:1055080080758800917588000080fa000000060008
:105518000c00fa00a90007008e0007000000eb004d
:1055280078000700900007000000eb00406b88003f
:105538006000b80080758800917588000000eb0055
:10554800a075880010002000b075880010002000a9
:10555800b076880070ac280091422400008fbe000d
:1055680002002000031724001e00be0093ee07006f
:10557800020020000310240090ee07000200200023
:10558800a3472400b7ed07002007980031079800cb
:1055980002002000032024002e009000be0090008e
:1055a80086ee070040079800510798000200200087
:1055b800030424002e009000be0090007fee070038
:1055c8000001be004e009000de009000a5ed07002f
:1055d800e8ed0700000078009077880002002000be
:1055e800030c24002e009000be00900073ee07000c
:1055f8000001be004e009000de00900099ed07000b
:10560800dced070000007800a07788009077800024
:10561800cf80de0013ee07000001be004e009000b0
:10562800de0090008fed0700a2df2e00b3162400e5
:1056380062ee0700020020000310240089ed070035
:10564800b0778800c1778800a0778000cf80de001f
:1056580004ee07000001be004e009000de0090003e
:1056680080ed0700a2df2e00b316240053ee0700da
:1056780002002000031024007aed0700d07788008c
:10568800e17788000421ef0021088000f0fc2f005a
:10569800008060000040a000200888000021ef0082
:1056a800800b2000100888008460a9008c60a80086
:1056b800a1048000f0ff2800808060000000260020
:1056c80001007000a004880005e1a8000080fa002d
:1056d800000006000000fa0005e1a9001000200003
:1056e800c0478800fa28ef0056f707000080fa0044
