:020000040000fa
:080000000001040000000000f3
:020000040000fa
:100200004fb92100007922000001880000000000a1
:100210000c000700c0df22000100200011000700d1
:10022000000020000000e000020032000000020098
:1002300000000000502b0200000000000040da0027
:100240000000fe004440a900000020000000e00083
:100250000300320000002000a00188004440a800f4
:100260000000060091018800800078000000eb008b
:1002700015003700e280400032a0b4009101ba00be
:10028000e280400032a0b4009102ba00e280400057
:1002900032a0b4000002eb00472bde00f507b200ed
:1002a000602ce10004003a000059eb008301e900f2
:1002b000fdff3e00040037006128e100010032002c
:1002c0000082eb00040007001101ba000200e00008
:1002d000e8ff3a00000006003159ba008301e90046
:1002e0000c0032002159ba008301e90008003200f5
:1002f0000400e00003003a00e280400032a0b400b5
:10030000f5ff370011d9ba008301e900faff3a007e
:100310008100e800e180400032a0b4000000060047
:100320009225040000000000762604000000000072
:10033000e00e040000000000889fbe0080047800ea
:1003400080cc80000000e00003003a00610007005c
:100350000000e0000a00350080cc80000900e000c9
:1003600002003a000004780006003700000478001c
:1003700009004000570007000000e00001003d00b8
:100380000084eb00080078004f04be000000060067
:100390000c02e20004003d000f42ab0002003200fc
:1003a0000f02ab00feff32000040da00feff370014
:1003b0000a00fa0011002000b1bf9f00c0bf9f00db
:1003c0006a80570000c0da004fb897000080fa003a
:1003d000000006000a00fa0051002000b1bf9f0093
:1003e000c0bf9f006a80570000c0da005fb8970066
:1003f0000080fa00000006000a00fa008001780080
:10040000e20f500028003e0090cc8000e10f500029
:1004100008003200e02120000000e000050032006a
:100420006421200085212000a62120008001780081
:1004300004003700c4202000e52020000621200011
:1004400043212000144090000004e0000400350027
:100450008009eb00144090000074a0001042980046
:10046000154090000028a30003003a0015409000ba
:100470000024a000904298008001eb0007003700a4
:10048000154090000008a300fdff320063c0780013
:100490000000fb00000b78008301e800828f510010
:1004a000f7ff3a000800370030002000b0bf9f007f
:1004b000c3bf9f00d1bf9f00e2bf9f006a8057006b
:1004c00000c0da006fb99700020078000080fa00df
:1004d00000000600800078000000e00004003a0000
:1004e0004099210080cc8800010178000600370087
:1004f0000081eb0040b92100808f500002003e00d7
:1005000081cc88000001eb000200780000000600aa
:10051000889fbe008a9fbe00010578000100e000b0
:100520000400350008003c000000e000200032001c
:100530000500370060001000e080180002003b005a
:1005400001f02c001a0037000004be006011b80052
:100550006b0920000982cf00020039000882cf0019
:100560000441b000694252000e00320008003b0016
:1005700082817100610164008904d1000884d30084
:100580008b05e8000442e800f9ff3a000500370057
:100590000804440089844c008b05e9000442e9000a
:1005a000fbff3a007e0107000af0a70001f0a0005f
:1005b0004f05be004f04be0000000600889fbe002d
:1005c0008a9fbe008c1f78009b010700a2013300a8
:1005d00003866c006450e100240032006420e100d6
:1005e000270032006150e100220032006120e1006a
:1005f000210032008b854200eb07b1000134b800c6
:10060000003ab8000804420089844a00013ab80060
:100610000030b8008880400009014a00040033001f
:100620000000400081804800020149008b05e9007c
:10063000c909dd00830170000100320013002000b1
:10064000c814de004814dd004709de001200b200c5
:10065000c808de00088470005101070001f0a10005
:100660000cf0a70001f0a000840137006120e10038
:10067000860132000801be000200be00f7ff37000d
:100680006150e100fcff3a008001370003f0a20056
:10069000889fbe008a9fbe008c1f780066010700fd
:1006a0006d0133006450e1004f0032006420e1002e
:1006b0005200320003826c0007003b000905d000a5
:1006c0000306d000820f54000c065d0002003900c2
:1006d0000200320089017800030678008582550007
:1006e00004003d000003fd008103fd008502ea00d7
:1006f0008b854200840f720002003b0060001000f6
:10070000e08018006011b8000005eb007a28e100d5
:100710000a00390006007800c75ddd00f707b20067
:10072000878075002d003700828171000a017800f2
:10073000610560008180d1000080d3008502e9005e
:10074000f9ff3b00060440008784480002003b009c
:1007500060041400e0841c000988a3000700320034
:100760008a81710082817100610164008904d10075
:100770000884d3008b05e800170037000978a30030
:1007800013003a000b00e000130034008b05e90071
:100790000804440089844c000a4474000978a300ca
:1007a0000d003a000b00e000070034008b05e90063
:1007b0000804440089844c0001003a000b0020002a
:1007c0000978a300f7ff32000001eb0002003700b8
:1007d000828171000a017800f10007000cf0a70087
:1007e00001f0a000250137006420e10002003a007a
:1007f000838f6c00250133000801be000200be009b
:100800001e0137001400200023013700889fbe001e
:100810008a9fbe008c1f780007010700100220008d
:1008200002003b00a0a888000b0137008a0062008c
:100830006408e10002003a00a0a888001301370014
:100840006108e100fcff32000800be0003047800ec
:100850000d00070001f0a1002a01070008f0a60022
:10086000040037000001be0091042400b0fd200008
:1008700086ff070009f0a70001f0a200ff00370083
:100880000081eb0084013700889fbe008a9fbe0074
:100890008c1f7800e8000700ef00330003866c002f
:1008a0006450e1002e0032006420e1003300320089
:1008b0006150e1002f0032006120e1003100320080
:1008c00085855500eb07b0000900200008042000d2
:1008d000050037000804440089844c000a003100f8
:1008e0000603430087834b000001530081815b00b6
:1008f000f8ff33000203be000800a0000804440013
:1009000089844c00f6ff3900c639dd00830173008d
:1009100001003200130020008904d1000884d300b4
:100920000998a300050032000800a7000300a000fa
:100930008904d1000884d3008b05e8008904d10024
:100940000884d3000001eb000281d200940007006c
:1009500001f0a1000cf0a70001f0a000c7003700d3
:100960006420e100c90032000801be000200be00a0
:10097000f7ff37006120e100c40032006000b800da
:10098000f3ff37000000200001f82700f0ff3700d8
:10099000889fbe008a9fbe008c1f78000004be00a6
:1009a000a60107000478a30026003a006120e100b8
:1009b0002500320009f8a30025003a006420e10078
:1009c00021003200f507b1000508a3000200320043
:1009d00000004000818048006044b80003102000ff
:1009e000020020000000400081804800080544000b
:1009f00089854c000a0541008b8549000a05500095
:100a00008b855800030033000a00be000204740006
:100a1000838474008301d1000281d300830f7100ad
:100a2000f0ff3a008904d1000884d3006001490036
:100a300082017800c1adde00fb07b000580007005e
:100a40008e0037000960a0000800be008b00370050
:100a500012022000a2a88800f0ff2f00f1ff27005b
:100a6000860037000001be00740107000470a70073
:100a700003f0a10003f8a30013003a006509b100d8
:100a800010003200090035006928e100020035003d
:100a9000010028000000050000004000818048009f
:100aa0008502e900fcff3a0000000600f88f4200d2
:100ab000050035008100d1000080d3008502e800e8
:100ac000fcff3a00000006008000eb00000005007b
:100ad0000001be00590107000470a70003f0a10047
:100ae0006509b100160032000d0035006828e100ec
:100af00006003500f0ff2f00f1ff27000300e000a3
:100b000013003b0001002800000005000000400029
:100b1000818048008502e900fcff3a0008003700a8
:100b2000f88f420002003c008000eb00000005004e
:100b30008100d1000080d3008502e800fcff3a006c
:100b40000300e00002003b0060001000e08018009d
:100b500000000600839f68000100e00002003d00e5
:100b600060001000e08018000300e00002003d007b
:100b700060011100e0811900450107004f00e0000d
:100b800002003b0060001000e0801800000006003a
:100b9000f4ff2f0040003700040020003e00370023
:100ba00081002000618055000b003d000b002000fb
:100bb00061fe2f000100e1001d0034008281710000
:100bc000610164008904d1000884d3000000e800ba
:100bd000faff3a0071002000610064000300700019
:100be000020060000900320061044400e0844c000f
:100bf0000988a500050032008b05e8006808e100bf
:100c000002003a008904d1000884d300f20f2000ca
:100c10000258e10005003d00c75ddd00f907b200a4
:100c20008980750008007800000006000bf8270096
:100c30008b007800000005000004be00ff000700e4
:100c40000003be000405be000200be00fb0007005a
:100c5000844f7500000006000200be006450e100f1
:100c6000050036006420e100020036000968a30098
:100c700001003a000800be000160a0004f067800a5
:100c80004f05be004f04be0000000600f0ff2f001d
:100c9000f1ff2700f9ff3700889fbe008a9fbe0042
:100ca000841f7800e4ff07004f0078001100330034
:100cb000f0ff2f00838f6c0006003b0004056500e9
:100cc0000a00a7000800370009f0a6001000200065
:100cd00008003700820f5400838f5c000300390046
:100ce0001000200001003e000000200009f0a700d5
:100cf0000000ea004f05be004f04be000000e00007
:100d000000000600889fbe008a9fbe008c9fbe0028
:100d10000004be00c90007000800be008906780074
:100d20006420e10008003900040032000160a000e6
:100d300012022000a2a888005300370091fc230073
:100d4000b0fd20004e0037000006eb0009f0a100c6
:100d500003f82300020020000800be00a9fe0700df
:100d60000600340001f82300000020000801be0046
:100d7000c5fe07000004be002c0020000800be00d5
:100d800093e82300320a23009efe0700120034007d
:100d90000801be00d1fd2300703d2b003cfe070082
:100da0000005be00b3f32300f27a26000800be005f
:100db00002fe070003f823000200200033fe0700b4
:100dc0000801be0032fe07000a01be00aefe0700a9
:100dd0000004be000c06e8000800be0001f0a100ff
:100de000020020000398230086fe07000800be00d2
:100df000160035000801be00f0fd07000005be002a
:100e000032cd2c0043fb230021fe0700809fbe0053
:100e10001269280003d52b000a00be00e7fd070079
:100e2000620f210013ef2b0019fe07000a01be001c
:100e3000e2fd07004f01be0093fe07000801be005f
:100e4000defd07000801be0011fe07000c00e000f7
:100e50000b0032000c10a70001f0a200b2fd200030
:100e600093fc23006260e1000400320022a920000c
:100e700063f023000c10a70063f8230004fe0700b2
:100e80000df0a70001f0a2004f06be004f05be0006
:100e90004f04be0000000600889fbe008a9fbe006f
:100ea0008c9fbe00820578000004be00630007002e
:100eb0000800be006420e1000700390002003a008b
:100ec000f1ff2700f0ff2f000160a00012022000b8
:100ed000a2a88800550037006120e10003003a0015
:100ee0000b00a70001f823005000370001f0a1001b
:100ef000020021009364240042fe07000800be00a7
:100f000004003500b2fd2000930c2400700007009f
:100f10000004be000005eb000b00a6004f0dde0034
:100f200001f0a1000004be0032982f0023ea230044
:100f3000a2fd07000001eb0003f023000b00a70057
:100f400003f82300d2fd0700e1fe07000000a70020
:100f50000a00a2006efd07000b00e0000300320053
:100f60000200200003f02300c8fd070001f0a200ea
:100f70000006be0002002000930424008ffd07003d
:100f80000801be00c2fd0700809fbe000c00be002d
:100f900022a22a00d3a7230088fd07004f01be002c
:100fa000bbfd07000004be0001f0a100020020000c
:100fb0000398230013fe07000800be001900350047
:100fc0000001be007dfd07000006be00b2c529007d
:100fd000e362230079fd070022222b00f3942b000b
:100fe000abfd07000c01be0074fd0700e273280092
:100ff00083c02300a6fd07000c01be006ffd0700a3
:1010000042aa2a00a3e22b00a1fd07000c01be00aa
:101010006afd07000801be0068fd07000801be0068
:101020009bfd07000a00a70001f0a2004f06be00ca
:101030004f05be004f04be0000000600c70ade00d8
:10104000f107b200f50fb20008003200e1cf420014
:10105000020032000170a00024000500810f700022
:10106000010032000408050044000500810f7000f3
:1010700002003a00140005008502e900000040006b
:1010800081c04800fcff3b000170a0002400050067
:101090006022b800060220000000d0008180d2004b
:1010a0000482d2008582d2000000a0000202520019
:1010b00083825a00030031000202420083824a0008
:1010c0000000a1000603e900f3ff3a00000006005b
:1010d0000400200000003700889fbe008a9fbe00e9
:1010e0008c1f78004f26dd00d3fe0700dafe3300a8
:1010f0006120e100430032006250e10041003e0007
:101100003e0039006420e1003c00320005825500b9
:101110000f003b000402e80038003a00800f530043
:10112000818f5b00350034000800be0003f0a10091
:1011300001f0a60003f0a0000cf0a70054fd07008a
:10114000cefe37000603430087834b000c46460063
:101150000005530081855b00020033000a03be00d6
:101160000c00a0000402e900f6ff3b0085057800b2
:101170000602430087824b0004003a006000b8007a
:1011800009f0a70001f0a000bcfe370000025200e9
:1011900081825a000704e000040033000603430084
:1011a00087834b008b05e900faff370009057800bb
:1011b0000604be000203be006011b80078fe0700fe
:1011c000e00f5200e08f5a000700350002003c009b
:1011d0000c08a300040032000601be0003f0a000ca
:1011e0000cf0a7002afd07000a85680001f0a100a5
:1011f0000af0a70001f0a000a0fe37000800be0022
:101200009efe3700100220000cf0a600a0a8880067
:101210009efe3700889fbe008a9fbe008c9fbe0046
:1012200000017800219821001100e0000b003a0035
:101230006098210010cc8800f0cb880031cc880069
:1012400001cc8800214090000004a000a04098003c
:10125000614090000004a000e0409800e7004100d9
:10126000c208de00c20cdd0003cc80004d992100d5
:1012700040b921000d05500022002000811f780098
:10128000110009000205d80000067800cf007800a0
:10129000c308dd00e4854000f5cb80008000eb0052
:1012a000479921002698210001003700800178002d
:1012b000234090000008a300020032000a0037001b
:1012c0009409780013027800244090000008a300dd
:1012d000fbff320009814100820f520002003900f9
:1012e000830f51004300310013007800830f50003a
:1012f000eeff3e00870f500002003900860f5000bd
:10130000eaff3900858f51004b003a00860f5000ec
:1013100049003a008100e800e18f5000e3ff360009
:101320008c8f5400040036008a8f54000200310074
:101330000b04780012003700614ab8006151b9000f
:10134000b0ff2f00010020000200500083805800f1
:10135000800f5200818f5a00020035000904780086
:10136000070037000d80540072b9210002004000d0
:10137000110009000a80d8000a80b9000004780032
:1013800008007800ecfb070080017800e10f4000c6
:1013900029003200f2cb800000097800640041008f
:1013a000a2409000808f5100020032000104a00092
:1013b000010037000104a10021419800888041000c
:1013c000e480500081097800f1cb88002298210048
:1013d00082087800214090000004a000a0409800fe
:1013e000234090000004a100a041980082017800f1
:1013f000a9ff370002cc8800820f52000800360097
:1014000012007800c1972100a24290008548780020
:10141000d0cb8800040978000040eb002041980000
:1014200082097800234090000004a000a0419800a9
:1014300064804100010037000000eb004f06be0051
:101440004f05be004f04be000000060064005000bf
:1014500000cc8800a04090000104a1002140980029
:1014600000000600889fbe008a9fbe00000578002d
:10147000e401500013001000c285de0023409000fc
:101480000008a3000400320003cc88002340900031
:101490000004a100a0419800010078005dff070052
:1014a000000478000000e000170032008a0f5000ae
:1014b0001500320060b8970008005000c284de00ba
:1014c000898f550001003600890578004259dd00fa
:1014d0008a00780008007800130007008a0f540083
:1014e000090031004248dd00000044008a0f50002e
:1014f000050036000a00500000004400d2cb8000f6
:10150000e3cb80000288be00080078004f05be00d3
:101510004f04be0000000600000478000900070028
:10152000080078009afb07008001eb0002003700fa
:1015300061f079008301e800828f5100fcff3a00de
:1015400000000600881f7800b0c880000000e0009e
:101550000100320000000100a8912100080078007d
:10156000060007006c044400a0972100800f54007f
:10157000faff3a004f04780000000600889fbe0082
:101580008a1f78000004780030009000630060003b
:101590002400320008007800300007003805900071
:1015a00080ef2f00000065003004980028009000b4
:1015b0000000e00004003200e804650002003a0088
:1015c0005f000700290498004800900078fb07009e
:1015d000e10f400013003200b80090000102b20099
:1015e00010003a000ac8a3001800320070cc800036
:1015f0000000e0001500320000017800810478004e
:10160000012a200012289000880f500007003200a5
:101610004205b0004905b000818f54000b00320034
:10162000f8ff37000080eb00090037000200780067
:1016300068fb070070cc8000090040008000eb00d0
:101640001128980001007800010037000000eb002d
:101650004f0578004f04be0000000600881f780088
:1016600000047800300090000008a300070032005a
:10167000800078000120b20004003a0011049800b4
:10168000a8009000010c7800170037000018a30094
:10169000190032000098a30017003200a800900043
:1016a0000100e00014003200180190000200e00088
:1016b00011003200480090004ffb07009800900096
:1016c000810f500003003200380090000003b30087
:1016d000300498000000eb001004980028009000ef
:1016e000000c7800380090000058a300020032007f
:1016f0000080eb00010037000000eb004f04780091
:101700000000060061cc80000100e0000300320010
:101710001100780060cc8800030037000020200012
:1017200005fb070080007800e18f400002003a00ce
:10173000906e2600a0a88800010078000000060036
:1017400061cc80000108780060cc880000000600b1
:020000040000fa
:10000800c6320000c6320000c6320000c632000008
:10001800c6320000c6320000c6320000c6320000f8
:10002800c6320000c6320000c6320000c6320000e8
:10003800c6320000c6320000922d0000c632000011
:10004800c6320000c6320000c63200008c20000014
:10005800c6320000c63200007a250000c632000011
:10006800c6320000c6320000c6320000c6320000a8
:10007800c6320000c6320000c6320000c632000098
:100088005c320000fc310000c6320000c6320000bd
:10009800c6320000c6320000c6320000c632000078
:1000a800c6320000c6320000c6320000c632000068
:1000b800c6320000c6320000c6320000c632000058
:1000c800c6320000c6320000c6320000c632000048
:1000d800c6320000c6320000c6320000c632000038
:1000e800c6320000c6320000c6320000c632000028
:0800f800c6320000c632000010
:020000040000fa
:10010800c6320000c6320000c6320000c632000007
:10011800c6320000c6320000c6320000c6320000f7
:10012800c6320000c6320000c6320000c6320000e7
:10013800c6320000c6320000922d0000c632000010
:10014800c6320000c6320000c63200008c20000013
:10015800c6320000c63200007a250000c632000010
:10016800c6320000c6320000c6320000c6320000a7
:10017800c6320000c6320000c6320000c632000097
:100188005c320000fc310000c6320000c6320000bc
:10019800c6320000c6320000c6320000c632000077
:1001a800c6320000c6320000c6320000c632000067
:1001b800c6320000c6320000c6320000c632000057
:1001c800c6320000c6320000c6320000c632000047
:1001d800c6320000c6320000c6320000c632000037
:1001e800c6320000c6320000c6320000c632000027
:0801f800c6320000c63200000f
:020000040000fa
:101750000600fa00000f7800110798001e007800bc
:10176000200798002e009000e30f50006700320021
:101770002e009000e30f500007003e002e00900066
:10178000e10f50002e0032002e009000e10f5000bb
:1017900041003e000d0037002e009000e50f500084
:1017a000940032002e009000e50f500074003900c4
:1017b0002e009000e60f5000ab0032002e0090008b
:1017c000e70f5000c5003200da0037001e0090001d
:1017d000e10f50000f003600c4c2bf000080fb00c4
:1017e0004600de00614060000004a200614060002d
:1017f000614060004601dd00412c200091407800ee
:10180000f0cbb30000c0600002407000c4e2b7003b
:101810001e0137001e0090006140600061406000c2
:101820004601dd00412c200091407800f0cbb30050
:1018300000c0600002407000c4e2b700130137002e
:101840001e009000e10f50000b003600c4c2bf0024
:101850000080fb004700de000004a2006140600041
:10186000c700dd00c4c2bf000074a10001407000c9
:10187000c4e2b700050137001e009000614060001f
:10188000c700dd00c4c2bf000074a10001407000a9
:10189000c4e2b700fd0037001e009000e10f5000c9
:1018a0000f003600c5c2bf000080fb000000d10061
:1018b000614060000004a20061406000614060007f
:1018c00000414000512c200091407800d0cfb3005f
:1018d00000c0600002407000c5e2b700eb003700b6
:1018e0001e009000614060006140600000414000c7
:1018f000512c200091407800d0cfb30000c0600090
:1019000002407000c5e2b700e00037001e00900002
:10191000e10f50000f003600c5c2bf000080fb0081
:101920004400de00614060000004a20061406000ed
:10193000614060004401dd00512c2000914078009e
:10194000f0ceb30000c0600002407000c5e2b700f6
:10195000ce0037001e0090006140600061406000d2
:101960004401dd00512c200091407800f0ceb300fe
:1019700000c0600002407000c5e2b700c30037003d
:101980001e009000e10f50000f003600c5c2bf00de
:101990000080fb004200de00614060000004a20005
:1019a00061406000614060004201dd00512c200078
:1019b00091407800b0cfb30000c0600002407000da
:1019c000c5e2b700b10037001e0090006140600022
:1019d000614060004201dd00512c20009140780000
:1019e000b0cfb30000c0600002407000c5e2b70095
:1019f000a60037001e009000e10f50000f003600d7
:101a0000c5c2bf000080fb004500de0061406000f1
:101a10000004a20061406000614060004501dd00fb
:101a2000512c200091407800f0cdb30000c0600040
:101a300002407000c5e2b700940037001e0090001d
:101a400061406000614060004501dd00512c2000d4
:101a500091407800f0cdb30000c0600002407000fb
:101a6000c5e2b700890037001e009000e10f50006a
:101a70000f003600c5c2bf000080fb004600de003c
:101a8000614060000004a2006140600061406000ad
:101a90004601dd00512c200091407800f0cbb300ce
:101aa00000c0600002407000c5e2b7007700370058
:101ab0001e00900061406000614060004601dd0052
:101ac000512c200091407800f0cbb30000c06000a2
:101ad00002407000c5e2b7006c0037001e009000a5
:101ae000e10f50000b003600c5c2bf000080fb00b4
:101af0004700de000004a20061406000c700dd0076
:101b0000c5c2bf000074a10001407000c5e2b7006b
:101b10005e0037001e00900061406000c700dd00dd
:101b2000c5c2bf000074a10001407000c5e2b7004b
:101b3000560037001e00900061406000c700dd00c5
:101b4000c5c2bf000074a10001407000c5e2b7002b
:101b5000c5c2bf000080fb004700de00614060009e
:101b60004601dd00512c200091407800f0cbb300fd
:101b700000c0600002407000c5e2b700c5c2bf00ef
:101b80000080fb004600de006140600061406000b4
:101b90004501dd00512c200091407800f0cdb300cc
:101ba00000c0600002407000c5e2b700c5c2bf00bf
:101bb0000080fb004500de00614060006140600085
:101bc0004201dd00512c200091407800b0cfb300dd
:101bd00000c0600002407000c5e2b700c5c2bf008f
:101be0000080fb004200de00614060006140600058
:101bf0004401dd00512c200091407800f0ceb3006c
:101c000000c0600002407000c5e2b700c5c2bf005e
:101c10000080fb004400de00614060006140600025
:101c200000414000512c200091407800d0cfb300fb
:101c300000c0600002407000c5e2b700c5c2bf002e
:101c40000080fb000000d10061406000c700dd00a3
:101c5000c4c2bf000074a10001407000c4e2b7001c
:101c6000c4c2bf000080fb004700de00614060008e
:101c70004601dd00412c200091407800f0cbb300fc
:101c800000c0600002407000c4e2b7000080fa00ab
:101c9000000006000000fa00c4c2a900c4e2a900c6
:101ca000c522a900c582a900c542a900c5a2a900f4
:101cb000c5c2a900c5e2a9000080fa000000060024
:101cc0000200fa00000f7800100020009e0f1000a4
:101cd0000f003600d0c2bf000080fb004200de00d3
:101ce000614060000004a20061406000614060004b
:101cf0004201dd00012d200091407800b0cfb300fb
:101d000000c0600002407000d0e2b7000a00370057
:101d10001e00780061406000614060004201dd000b
:101d2000012d200091407800b0cfb30000c06000ca
:101d300002407000d0e2b7000080fa000000060008
:101d40000200fa00000f7800100020009e0f100023
:101d50000f003600d0c2bf000080fb000000d100a1
:101d6000614060000004a2006140600061406000ca
:101d700000414000012d200091407800d0cfb300f9
:101d800000c0600002407000d0e2b7000a003700d7
:101d90001e0078006140600061406000004140002a
:101da000012d200091407800d0cfb30000c060002a
:101db00002407000d0e2b7000080fa000000060088
:101dc0000000fa00c4c2bf000080fb004600de0035
:101dd0006140600000417800024078000080ea0025
:101de0008180ea0061406000614060004601dd00e2
:101df000412c200091407800f0cbb30000c060007f
:101e000002407000c4e2b700c4c2bf000080fb0003
:101e10004700de0000417800024078000080ea00c0
:101e20008180ea0061406000c700dd00c4c2bf00dd
:101e30000074a10001407000c4e2b700c5c2bf0039
:101e40000080fb000000d10061406000004178008c
:101e5000024078000080ea008180ea006140600072
:101e60006140600000414000512c2000914078000a
:101e7000d0cfb30000c0600002407000c5e2b700e0
:101e8000c5c2bf000080fb004400de00614060006e
:101e900000417800024078000080ea008180ea007a
:101ea00061406000614060004401dd00512c200071
:101eb00091407800f0ceb30000c060000240700096
:101ec000c5e2b700c5c2bf000080fb004200de00d3
:101ed0006140600000417800024078000080ea0024
:101ee0008180ea0061406000614060004201dd00e5
:101ef000512c200091407800b0cfb30000c06000aa
:101f000002407000c5e2b700c5c2bf000080fb0000
:101f10004500de006140600000417800024078002a
:101f20000080ea008180ea0061406000614060005a
:101f30004501dd00512c200091407800f0cdb30028
:101f400000c0600002407000c5e2b700c5c2bf001b
:101f50000080fb004600de00614060000041780028
:101f6000024078000080ea008180ea006140600061
:101f7000614060004601dd00512c20009140780056
:101f8000f0cbb30000c0600002407000c5e2b700b3
:101f9000c5c2bf000080fb004700de0000417800a2
:101fa000024078000080ea008180ea006140600021
:101fb000c700dd00c5c2bf000074a1000140700071
:101fc000c5e2b7000080fa00000006000000fa0039
:101fd000c4c2bf000080fb004600de00614060001c
:101fe00000417800024078000080ea008180ea0029
:101ff00061406000614060004601dd00412c20002e
:1020000091407800f0cbb30000c060000240700047
:10201000c4e2b7000080fa00000006000000fa00e9
:10202000c4c2bf000080fb004700de000041780012
:10203000024078000080ea008180ea006140600090
:10204000c700dd00c4c2bf000074a10001407000e1
:10205000c4e2b7000080fa00000006000000fa00a9
:10206000c5c2bf000080fb000000d10061406000dd
:1020700000417800024078000080ea008180ea0098
:10208000614060006140600000414000512c200030
:1020900091407800d0cfb30000c0600002407000d3
:1020a000c5e2b7000080fa00000006000000fa0058
:1020b000c5c2bf000080fb004400de00614060003c
:1020c00000417800024078000080ea008180ea0048
:1020d00061406000614060004401dd00512c20003f
:1020e00091407800f0ceb30000c060000240700064
:1020f000c5e2b7000080fa00000006000000fa0008
:10210000c5c2bf000080fb004200de0061406000ed
:1021100000417800024078000080ea008180ea00f7
:1021200061406000614060004201dd00512c2000f0
:1021300091407800b0cfb30000c060000240700052
:10214000c5e2b7000080fa00000006000000fa00b7
:10215000c5c2bf000080fb004500de00614060009a
:1021600000417800024078000080ea008180ea00a7
:1021700061406000614060004501dd00512c20009d
:1021800091407800f0cdb30000c0600002407000c4
:10219000c5e2b7000080fa00000006000000fa0067
:1021a000c5c2bf000080fb004600de006140600049
:1021b00000417800024078000080ea008180ea0057
:1021c00061406000614060004601dd00512c20004c
:1021d00091407800f0cbb30000c060000240700076
:1021e000c5e2b7000080fa00000006000000fa0017
:1021f000c5c2bf000080fb004700de000041780040
:10220000024078000080ea008180ea0061406000be
:10221000c700dd00c5c2bf000074a100014070000e
:10222000c5e2b7000080fa00000006000200fa00d4
:10223000000f78009e00780000ee2000780d070067
:102240000080fa00000006000000fa0000ee200006
:10225000a30d07000080fa00000006000200fa004b
:10226000000f78001e00e000030035009e0078009b
:1022700000ee2000c20d07000080fa0000000600fa
:102280000000fa0006d5bf000004e0000b003a0091
:102290008000eb00700020002dfd070006d5bf0078
:1022a0000080fb001100200029fd070006d5bf00bb
:1022b0000040e80006f5b7001b00370006d5bf0058
:1022c000e74f50000c003a0006d5bf000080fb002d
:1022d0000000e9008000eb001dfd070006d5bf00ef
:1022e0000080fb001100200019fd07000040eb00fa
:1022f00006f5b7000c00370006d5bf000080fb00d4
:102300000000e9008000eb0011fd070006d5bf00ca
:102310000080fb00110020000dfd070006d5bf0066
:102320000040e80006f5b7000080fa000000060053
:102330000200fa0007d5bf000080fb00000f780004
:102340001e007800e20f50001c0032001e007800d2
:10235000e20f500007003c001e0078000000e00083
:102360000b0032001e007800e10f50000c0032001c
:10237000230037001e007800e30f500016003200e3
:102380001e007800e40f50001a0032001c003700d5
:10239000210020000000eb00edfc070018003700d2
:1023a0002100200010002000e9fc0700210020008f
:1023b00070002000e6fc070011003700210020001b
:1023c00020002000e2fc0700210020006000200027
:1023d000dffc07000a003700210020003000200049
:1023e000dbfc07002100200050002000d8fc070083
:1023f000030037002100200040002000d4fc07002b
:1024000007d5bf00e34f500004003e0007d5bf00d2
:102410000040e80007f5b700020037000040eb007d
:1024200007f5b7000080fa00000006000000fa007f
:1024300008d5bf000004e0000f003a0010d5bf002f
:102440000004e0000c00320010c0b30008f5b70033
:102450008000eb000000eb00bdfc070008d5bf00ca
:102460000080fb0011002000b9fc07000040eb00d9
:1024700010f5b7002b00370008d5bf000004e000be
:102480000f003a0010d5bf000004e0000c003a0035
:1024900070c0b30008f5b7008000eb000000eb004f
:1024a000abfc070008d5bf000080fb001100200036
:1024b000a7fc070010c0b30010f5b70019003700e3
:1024c00008d5bf00e74f50000a003a000040eb007b
:1024d00008f5b7008000eb00700020009cfc0700ae
:1024e00008d5bf000080fb001100200098fc070009
:1024f0000c00370008d5bf00e14f500009003a003a
:102500000040eb0008f5b7008000eb001000200051
:102510008ffc070008d5bf000080fb0011002000e1
:102520008bfc07000080fa00000006000200fa00a1
:1025300009d5bf000080fb00000f78001e00780066
:10254000e10f5000150032001e007800e10f50002e
:1025500004003c001e0078000000e000080032008b
:102560001a0037001e007800e20f500012003200ff
:102570001e007800e30f50001300320013003700f4
:10258000210020000000eb0071fc0700210020006a
:10259000400020006efc07000c00370021002000e6
:1025a000100020006afc07002100200030002000fd
:1025b00067fc0700050037002100200020002000f4
:1025c00063fc070001003700b2fd070009d5bf001a
:1025d000e24f500004003e0009d5bf000040e80073
:1025e00009f5b700020037000040eb0009f5b7001d
:1025f0000080fa00000006000200fa000ad5bf00c1
:102600000080fb00000f78001e007800e10f5000f2
:10261000150032001e007800e10f500004003c005d
:102620001e0078000000e000080032001a003700a9
:102630001e007800e20f5000120032001e007800e9
:10264000e30f500013003200130037002100200078
:102650000000eb003efc07002100200040002000ad
:102660003bfc07000c003700210020007000200018
:1026700037fc0700210020005000200034fc070038
:1026800005003700210020006000200030fc07001a
:10269000010037007ffd07000ad5bf00e24f500060
:1026a00004003e000ad5bf000040e8000af5b7006c
:1026b000020037000040eb000af5b7000080fa0086
:1026c000000006000600fa00000f78001e007800e7
:1026d000200798002e009000e10f500014003200f7
:1026e0002e009000e10f5000040039002e009000f1
:1026f000e20f50001b003200270037009e007800d8
:10270000b2a78000200320000088b900020040002a
:1027100080004000a0e4200000804000900078008d
:1027200040a6800080805000110798001c003700f0
:102730009e007800b2a78000200320000088b90026
:102740000200400080004000a0e420000080400023
:102750009000780050a680008080500011079800fb
:102760000f0037009e007800b2a7800020032000f1
:102770000088b9000200400080004000a0e4200072
:10278000008040009000780070a880008080500099
:102790001107980002003700a029200010079800b8
:1027a0001e0090000080fa00000006000c00fa00f5
:1027b00040079800510798006000b8002007980073
:1027c000310798004e009000e20f500030003e00ac
:1027d0005e0090000000e0002d003200de0090005e
:1027e00020032000808f500029003e000000eb00f5
:1027f00010079800b1a780005e0090000080500094
:102800003003b00022032000110009000280d8002c
:102810008000fd00000f780019003700ce00900006
:102820001e017800200320000088b900020040004b
:1028300080004000a0e420000080400010007800ec
:102840006101b9002e009000be0090000000410020
:102850008180490020079800310798001e009000f1
:102860000000e800100798001e00e8002203200086
:10287000110009000200d8008000fd00000f780060
:102880009e0090005e009000808f5000e3ff3900b2
:102890005e0090006101b8002e009000be00900024
:1028a000acf807000080fa00000006000000fa0003
:1028b000510020000000eb00bcff07008000780002
:1028c00040a680000080500060a6880051002000d3
:1028d00010002000b5ff07008000780050a680009f
:1028e0000080500070a688005100200020002000c9
:1028f000aeff07008000780070a8800000805000c4
:1029000080a688000080fa00000006000000fa009f
:10291000889fbe008a9fbe00e4ff070060a680007b
:102920006103b90060a680006102b90086007800ea
:1029300004007800000db80005b0b9000b01780064
:102940000001410007a0b9000001410082057800a4
:1029500070a680006104b90070a680006103b90010
:102960008800780006007800000ab80007c0b900a7
:10297000050178000001410009b0b90000014100e3
:10298000820278000a0542008b854a0080a68000fa
:102990006104b90080a680006103b9008800780056
:1029a00006007800000ab80007c0b90005017800e9
:1029b0000001410009b0b900000141008202780025
:1029c0000a0042008b804a00d1f60700f0f70700aa
:1029d00090a68800a1a6880060a680006103b900c7
:1029e00060a680006102b9008600780004007800cb
:1029f000000db80005b0b9000b01780000014100de
:102a000007a0b900000141008205780070a680008f
:102a10006104b90070a680006103b90088007800e5
:102a200006007800000ab80007c0b9000501780068
:102a30000001410009b0b9000001410082027800a4
:102a40000a0042008b804a00b1f60700d0f7070069
:102a50000004be0080a68000cf80de00acf6070038
:102a60000801be0069f70700c209230053262c00a5
:102a7000d2f6070002002000432b240004f70700d1
:102a8000d0a68800e1a68800d0a68000e1a680003c
:102a900002002000030a24005af707000000e000ab
:102aa00001003500040037006000b800b0a68800bf
:102ab000c1a688001100370070a68000cf80de001c
:102ac00093f607000004be0060a68000cf80de0001
:102ad0008ff607000801be004cf70700c20923006b
:102ae00053262400b5f607000200200043332400db
:102af000e7f60700b0a68800c1a688004f05be0013
:102b00004f04be000080fa00000006000000fa003a
:102b1000210320000000eb0024ff070040a68800ee
:102b2000210320001000200020ff070050a688008d
:102b300021032000200020001cff070070a888004f
:102b40000080fa00000006000c00fa00881f7800e0
:102b5000000478006dff070090a68000a1a6800009
:102b6000008fbe00b0a68000c1a68000200798009c
:102b700031079800d0a68000e1a6800040079800a9
:102b8000510798008e007800080078001101be00ff
:102b90000288be0064004000e48040001101be00d5
:102ba0000288be0064004000e48040001101be00c5
:102bb0000288be00080078004f0478000080fa0008
:102bc000000006000000fa0050ff0700d0a68000b9
:102bd000e1a680000080fa00000006000000fa0074
:102be0004aff0700b0a68000c1a680000080fa005e
:102bf000000006000000fa0044ff070090a68000d5
:102c0000a1a680000080fa00000006000600fa007d
:102c1000881f78000004780024ff070060a6800069
:102c2000000f780070a680001007980080a6800032
:102c3000200798001e00be00008cbe00ae00900071
:102c400021049800080078004f0478000080fa0002
:102c5000000006000000fa0014ff070060a68000d4
:102c60000080fa00000006000000fa000fff0700d5
:102c700070a680000080fa00000006000000fa0044
:102c80000aff070080a680000080fa00000006000e
:102c90001600fa006000b800008fbe00cfff0700ea
:102ca000008fbe0030a68000cf80de0018f607003f
:102cb0001e01be0075f6070085f70700200f98007b
:102cc0002e0890000000e00003003d00ae089000d8
:102cd0008100ea00210f98002e0990006110b900d0
:102ce0000bf6070002002000030a2400a8f70700e3
:102cf0000000e00001003c004f013700c5e2a900e0
:102d0000c5c2bf000080fb004700de0061406000dc
:102d10004601dd00512c200091407800f0cbb3003b
:102d200000c0600002407000c5e2b700c5c2bf002d
:102d30000080fb004600de006140600061406000f2
:102d40004501dd00512c200091407800f0cdb3000a
:102d500000c0600002407000c5e2b700c5c2bf00fd
:102d60000080fb004500de006140600061406000c3
:102d70004201dd00512c200091407800b0cfb3001b
:102d800000c0600002407000c5e2b700c5c2bf00cd
:102d90000080fb004200de00614060006140600096
:102da0004401dd00512c200091407800f0ceb300aa
:102db00000c0600002407000c5e2b700c5c2bf009d
:102dc0000080fb004400de00614060006140600064
:102dd00000414000512c200091407800d0cfb3003a
:102de00000c0600002407000c5e2b700c5c2bf006d
:102df0000080fb000000d10061406000c700dd00e2
:102e0000c4c2bf000074a10001407000c4e2b7005a
:102e1000c4c2bf000080fb004700de0061406000cc
:102e20004601dd00412c200091407800f0cbb3003a
:102e300000c0600002407000c4e2b7000040eb0038
:102e40002057980002002c00833a24001e00be0088
:102e50004ff707000000e00001003c0002003700cf
:102e600011c0b300215798000041eb0012579800a1
:102e700002002000431b24001e00be0061f6070074
:102e80000000e000010034000200370010c0b30071
:102e900010579800ae5090001e51900002c0700074
:102ea0000004a2000004e00011003a000040eb0022
:102eb0000057980002002800634224001e00be0054
:102ec00035f707000000e00001003a00020037007b
:102ed00011c0b300015798000e5090000004a200ea
:102ee0000004e00002003a00c4c2a800cf0037008e
:102ef0000041eb00724f980002002000431b2400a9
:102f00001e00be0022f707000000e00001003c00a8
:102f10000200370010c0b300704f98007e48900048
:102f20000004a2000004e00011003a008040eb0021
:102f3000614f980002002000732824001e00be008c
:102f400030f607000000e000010034000200370006
:102f500012c0b300624f98006e4890000004a200b7
:102f60000004e00002003a00c5e2a800af0037000c
:102f70000040eb00504f980002002000732824000e
:102f80001e00be0002f707000000e00001003c0048
:102f90000200370011c0b300514f98005e48900006
:102fa0000004a2000004e00011003a000041eb0020
:102fb000424f980002002000132e24001e00be0085
:102fc00010f607000000e0000100340002003700a6
:102fd00010c0b300404f98004e4890000004a2007b
:102fe0000004e00002003a00c5c2a8008f003700cc
:102ff0008040eb00314f980002002000132e240087
:103000001e00be00e2f607000000e00001003c00e8
:103010000200370012c0b300324f98003e489000c3
:103020000004a2000004e00011003a000040eb00a0
:10303000204f980002002800d33124001e00be005b
:10304000f0f507000000e000010034000200370046
:1030500011c0b300214f98002e4890000004a20038
:103060000004e00002003a00c5a2a8006f0037008b
:103070000041eb00124f980002002800d3312400d9
:103080001e00be00c2f607000000e00001003c0088
:103090000200370010c0b300104f98001e48900087
:1030a0000004a2000004e00011003a008040eb00a0
:1030b000014f980002002800a33424001e00be0027
:1030c000d0f507000000e0000100340002003700e6
:1030d00012c0b300024f98000e4890000004a200f6
:1030e0000004e00002003a00c542a8004f0037008b
:1030f0000040eb007047980002002800a334240031
:103100001e00be00a2f607000000e00001003c0027
:103110000200370011c0b300714798007e40900054
:103120000004a2000004e00011003a000041eb009e
:103130006247980002002800733724001e00be007a
:10314000b0f507000000e000010034000200370085
:1031500010c0b300604798006e4090000004a200c9
:103160000004e00002003a00c582a8002f003700ea
:103170008040eb005147980002002800733724007c
:103180001e00be0082f607000000e00001003c00c7
:103190000200370012c0b300524798005e40900012
:1031a0000004a2000004e00011003a000040eb001f
:1031b0004047980002002400233924001e00be006e
:1031c00090f507000000e000010034000200370025
:1031d00011c0b300414798004e4090000004a20087
:1031e0000004e00002003a00c522a8000f003700ea
:1031f00002002400233924001e00be0064f60700ec
:103200000000e00001003c000800370002002c0034
:10321000833a24001e00be007af507000000e0009b
:103220000100340001003700c4e2a8001e00be0007
:1032300027f6070030a688000080fa00000006008c
:103240000000fa00d80b0700db0b07000000eb00c2
:1032500060a888000080fa00000006000000fa0064
:103260008040eb0000c4b300db0b07000080fb00d4
:103270000080fa00000006000000fa0091c0b300d0
:1032800000c4b300d40b07000080fb000080fa00ec
:10329000000006000200fa0071c0b30000c4b300d1
:1032a000cd0b07001047980081c0b30000c4b300e5
:1032b000c90b0700004f78001e4090000080fb0003
:1032c000c800dd001e80fb00008040000080fa0086
:1032d000000006000400fa0011c0b30000c4b300ef
:1032e000bd0b07003047980021c0b30000c4b300f5
:1032f000b90b0700204798003e4090000080fb007b
:10330000c800dd002e4090000080fb00008f4000d0
:103310001e0078000080fa00000006000400fa0099
:1033200051c0b30000c4b300ab0b07003047980096
:1033300061c0b30000c4b300a70b0700204798008a
:103340003e4090000080fb00c800dd002e40900051
:103350000080fb00008f40001e0078000080fa0013
:10336000000006000400fa0031c0b30000c4b3003e
:10337000990b07003047980041c0b30000c4b30068
:10338000950b0700204798003e4090000080fb000e
:10339000c800dd002e4090000080fb00008040004f
:1033a000000f78001e007800cf80de0058f4070080
:1033b00072712b00138d230080f407000080fa0047
:1033c000000006000600fa001e01be000288be00d2
:1033d000ae019000230098000080fa000000060073
:1033e0000c00fa00300798004107980041c1b30073
:1033f00000c4b300780b07000004e0003300320083
:103400000000eb00200798001a0037002e00900003
:1034100000004000f540400000c4b3006e0b070000
:10342000104798002e00900000004000f640400039
:1034300000c4b300680b0700004f78002e00900016
:1034400000004000800078003e00900000814000b5
:103450001e4090000080fb00c800dd001e80fb00c5
:1034600000804000000978002e0090000000e80075
:10347000200798002e009000eb0f5000e3ff34006f
:10348000d1c2b30000c4b300530b0700304798000b
:10349000e1c2b30000c4b3004f0b070020479800ff
:1034a0003e4090000080fb00c800dd002e409000f0
:1034b0000080fb00808040004e00900001087800f2
:1034c0001000200050079800020037000000eb00b9
:1034d000500798005e0090000080fa00000006008f
:1034e0006400fa00202798003127980042279800ae
:1034f00041c1b30000c4b300370b07000004e00073
:103500004f0132000000eb00501798001a003700fe
:103510005e10900000004000f540400000c4b30081
:103520002d0b0700304798005e109000000040000f
:10353000f640400000c4b300270b07002047980066
:10354000de1190003e4090000080fb00c800dd00ce
:103550002e4090000080fb0000814000c10220004e
:103560008e80400003804100823078005e10900021
:103570000000e800501798005e109000eb0f50001c
:10358000e3ff34006000b80030179800411798003e
:103590006000b80010179800211798000000eb0099
:1035a000001798000000eb00700f98000040eb003f
:1035b000505f98000040eb00405f98000000eb0077
:1035c000500f9800550037005e089000c10220009f
:1035d0008e80400000004000610f78001e00e00077
:1035e0004b0032001e007800cf80de00c8f30700d9
:1035f00000379800113798001e00e00007003d00da
:1036000002002000037824000e3090009e309000cd
:103610001ff4070000379800113798005e089000eb
:10362000c200dd00a03c2100008040001001be006f
:103630000e3090009e309000e0f307000001be00c5
:103640003e109000ce10900011f407003017980043
:10365000411798001e007800cf80de00acf3070011
:10366000602f9800712f98001e00e00007003d00b9
:1036700002002000037824006e289000fe289000ad
:1036800003f40700602f9800712f98005e089000e7
:10369000c200dd00a03f2100008040001001be00fc
:1036a0006e289000fe289000c4f307000001be00c1
:1036b0001e109000ae109000f5f307001017980050
:1036c000211798000e1090009e0f10000900360080
:1036d0000e109000700f98005e599000425f9800a5
:1036e0009e017800031798005e089000505f9800d4
:1036f000070037007e0890009e0f1000040036007f
:103700001e007800700f98005e089000405f9800df
:103710005e0890000000e800500f98005e089000de
:10372000eb0f5000a8ff34006011b8003e1090006d
:10373000ce10900033f407000000e00001003200da
:103740000a0037006011b8001e109000ae10900003
:103750002cf407000000e0000100320003003700f5
:103760000001eb00522f9800b70037003e11900087
:10377000ce1190001e109000ae10900023f40700b0
:10378000300f9800410f98000e109000cf80de009f
:103790005ff30700302f9800412f98000e10900023
:1037a0000000e00007003d00020020000378240034
:1037b0003e289000ce289000b5f30700302f9800e7
:1037c000412f98000e109000cf80de0050f30700cc
:1037d000102f9800212f98000e1090000000e0009c
:1037e00007003d0002002000037824001e289000fe
:1037f000ae289000a6f30700102f9800212f980004
:103800001e299000ae2990003e289000ce289000fe
:103810006af30700100f9800210f98001e0990000e
:10382000ae0990001e089000ae08900063f30700f8
:10383000100f9800210f98007e089000cf80de00c6
:1038400033f3070070279800012f98007e0890003e
:103850000000e00007003d00020020000378240083
:103860007e2090008e28900089f307007027980032
:10387000012f98007e089000cf80de0024f307001f
:1038800050279800612798007e0890000000e00013
:1038900007003d0002002000037824005e20900015
:1038a000ee2090007af307005027980061279800d7
:1038b0005e219000ee2190007e2090008e289000e6
:1038c0003ef3070070079800010f98007e019000fa
:1038d0008e0990007e0090008e08900037f307005c
:1038e00070079800010f98005e5890000000fb00e0
:1038f000c200dd00a0392100008040001001be00a0
:103900003e089000ce08900060f30700dcf307004b
:1039100050079800610798005e019000ee0190004a
:103920005e009000ee00900024f30700500798001e
:10393000610798004e5890000000fb00c200dd00b7
:10394000a0392100008040001001be003e08900018
:10395000ce0890004df30700c9f307003007980028
:10396000410798003e019000ce0190003e0090007b
:10397000ce00900011f3070030079800410798002f
:103980005e019000ee0190001e089000ae089000cd
:10399000bdf30700100f9800210f98003e01900022
:1039a000ce0190007e0090008e089000b6f30700d4
:1039b00070079800010f98007e0190008e0990001a
:1039c0001e089000ae08900031f30700f0f30700e6
:1039d000eff3070023f40700800078002e2090000a
:1039e00001087800d1c2b30000c4b300fa0907008f
:1039f00050479800e1c2b30000c4b300f6090700c5
:103a0000404798005e4090000080fb00c800dd0049
:103a10004e4090000080fb00808040004e209000cf
:103a2000010878003e2090003e099000ce099000e9
:103a30000288be0013002000532f980002003700b8
:103a40000000eb00502f98005e2890000080fa00e4
:103a5000000006000200fa00000f78001e00780047
:103a60004800de0000417800d1c0b30000c4b300bc
:103a7000fd0907001e00780000417800e1c0b30096
:103a800000c4b300f80907000080fa000000060037
:103a90000400fa00004f7800110798001e00900003
:103aa000004178009e40780000c4b300ee09070092
:103ab0001e0090004800de0000417800d1c0b30035
:103ac00000c4b300e80907001e0090000041780020
:103ad0009e40780000c4b300e30907000080fa00ac
:103ae000000006000000fa000041eb00f1c0b30046
:103af00000c4b300dc0907000080fa0000000600e3
:103b00000200fa00004f78001e417800c1c0b300e7
:103b100000c4b300d40907000080fa0000000600ca
:103b20000000fa000041eb0001c1b30000c4b30083
:103b3000cd0907000080fa00000006000200fa002c
:103b4000004f78001e00fb0060a888001e4178002e
:103b500011c1b30000c4b300c30907000080fa001c
:103b6000000006000200fa000000eb00b09b880095
:103b70000000eb00c09b88000000eb003040880094
:103b800010002000204088000000eb00000f7800ab
:103b9000190037001e00780080004000a08320003c
:103ba000808040000000eb00800878001e00780054
:103bb00080004000a0812000808040000000eb00d9
:103bc000800878001e00780080004000a08020005f
:103bd000808040000000eb00800878001e00780024
:103be00080004000a0822000808040000000eb00a8
:103bf000800878001e0fe800700020009e0f100063
:103c0000e4ff34000000eb004040880060f7200033
:103c10000040880060172100104088000000eb0081
:103c2000001588000000eb00101588000000eb0074
:103c3000201588000000eb0030158800a802a800bd
:103c4000a822a800a842a900a862a900a882a900e9
:103c5000a8a2a900a8c2a900a8e2a900a902a900d7
:103c6000a922a900a942a900a962a900a982a900c4
:103c7000a9a2a900a9c2a900a9e2a900aa02a900b3
:103c8000aa22a900aa42a900aa62a900aa82a900a0
:103c9000aaa2a900aac2a900aae2a900ab02a80090
:103ca000ab22a800ab42a800ab62a800ab82a80080
:103cb000aba2a800abc2a800abe2a800112a20006a
:103cc00091407800c0cfb30000c06000a1e2b7000f
:103cd000a042a800012a20009140780000ceb30045
:103ce00000c07000a0e2b700212a200091407800b7
:103cf00030ccb30000c06000c041b300a2e2b70006
:103d0000a342a800512a20009140780000ceb300c1
:103d100000c060000004a000a5e2b700412a200016
:103d20009140780000ccb30000c060003041b30087
:103d3000a4e2b7008560a9008d60a8009109200069
:103d40009140780000c7b30000c0700099e0b70050
:103d5000a1e2a8000080fa00000006000000fa00be
:103d6000a1e2a8008d60a8000080fa000000060013
:103d70000000fa000000eb0080a788000040eb0084
:103d8000eef4b7000080fa00000006000200fa001e
:103d9000000f78001e00780090a788000000eb005c
:103da00080a788000040eb00eef4b7000080fa0026
:103db000000006000000fa00a1e2a9008d60a90041
:103dc0000080fa00000006000200fa004040800077
:103dd000e10f50002100320090a780000000e000b9
:103de0000400340090a780000000e90090a788003c
:103df0001a0037000228200080a780004400dd0060
:103e00008000780000408000008040000f00090022
:103e1000325878000001b1000201b10080a7800093
:103e20000000e80080a7880080a78000ff0f5000f6
:103e30000a0036000000eb0080a7880010c0b30025
:103e4000eef4b70010408000000f780000408000c2
:103e5000104088001e007800004088000080fa00b2
:103e6000000006001600fa00d09b80000000e80069
:103e7000d09b8800d19b8000e09b8000808f500009
:103e8000a30035000000eb00d09b8800f09b800071
:103e9000e30f500004003400b5ff07000000eb0002
:103ea000b09b88009a003700002820008e80e80030
:103eb0000f000900b05878000101b1000001b10005
:103ec000f09b8000000f7800009c80000000e00064
:103ed00035003a001e0178001e0078008e80e80050
:103ee00000004000610078008001780082004100fd
:103ef000a080200000804000030878009e00780029
:103f0000648140009e007800648040008e80e8005c
:103f100000004000610078008001780082004100cc
:103f2000a080200000804000030878001e00780078
:103f3000100f98009e089000e18f50001000320092
:103f40001e089000e10f500004003c009e08900005
:103f50000100e000080032000e0037001e0890004b
:103f6000e20f5000080032009e089000e38f5000de
:103f70000700320007003700e2e2a8000500370022
:103f8000e302a80003003700e802a80001003700a0
:103f9000e822a80010002000009c880040002000bb
:103fa000e09b88005a0037001e0178001e00780050
:103fb0008e80e800000040006100780080017800f9
:103fc00082004100a08120000080400003087800aa
:103fd0001e007800640140009e007800648040006c
:103fe0008e80e800000040006100780080017800c9
:103ff00082004100a081200000804000030878007a
:104000009e0178001e00780080004000a080200003
:1040100000804000100178001e0078008000400001
:10402000a0812000008040001000780000015100b5
:1040300083804100a08220000080400002087800b8
:104040001e007800e40140009e007800648040007b
:1040500080004000a0802000008040001001780017
:104060009e0078006480400080004000a081200015
:104070000080400010007800000151008380410062
:10408000a082200000804000020878001e00780016
:10409000200f9800ae089000e18f50001000320011
:1040a0002e089000e10f500004003c00ae08900084
:1040b0000100e000080032000e0037002e089000da
:1040c000e20f500008003200ae089000e38f50006d
:1040d0000700320007003700e2e2a90005003700c0
:1040e000e302a90003003700e802a900010037003d
:1040f000e822a9000000eb00009c8800f09b8000f3
:104100000000e800f09b8800a0012000e09b8800f0
:104110000080fa00000006003600f800809fbe0014
:10412000829fbe00849fbe00869fbe003400f800c0
:1041300000002000a00188000200fa008560a900ac
:1041400020408000e10f500003003a00c09b800037
:104150000000e800c09b8800c19b8000b09920004f
:10416000808f5000130034000000eb00c09b8800db
:10417000304080000000e0000e003a00e2e2a900ba
:10418000e302a900e802a900e822a9000000eb0070
:10419000d09b8800a0012000e09b88000000eb007d
:1041a000009c88000000eb00f09b880010002000bd
:1041b000b09b8800b09b8000000f78001e00780044
:1041c0000000e000040032001e007800e10f500003
:1041d0000300320003003700fbfe07000100370038
:1041e00020ff07000080fa003400f9004f03be00f2
:1041f0004f02be004f01be004f00be003600f90066
:10420000004006000200fa00eed4bf00004f780024
:104210000040eb00eef4b7001e00fb000080fa0047
:10422000000006003207fa000173200081004700f9
:10423000800878000073200000004700100078001c
:1042400080004000a0822000008040001000780024
:104250000080fa00000006000200fa00000f78005b
:104260001e00780080004000a082200000804000f6
:10427000100178001e00780080004000a08320001c
:104280000080400010007800000051000080fa001b
:10429000000006000200fa00000f78001e007800ff
:1042a00080004000a08020000080400010007800c6
:1042b0000080fa00000006002400fa00881f780041
:1042c000640047006011b8000288be00640040002e
:1042d0006011b8000288be00640040006011b800a0
:1042e0000288be00640040006011b8000288be0071
:1042f000640040006011b8000288be006400400005
:104300006011b8000288be00640040006011b8006f
:104310000288be00640040006011b8000288be0040
:104320000000eb00000f7800320037000000eb00c7
:10433000c09b880010002000304088001000200042
:1043400040408800b09b8000e10f5000fdff32002c
:104350000000eb00d09b8800a0012000e09b8800bb
:104360000000eb00009c88000000eb00f09b880040
:1043700010002000b09b8800b09b8000e10f50002f
:10438000fdff32000000eb00100798001500370019
:104390001e0290001e009000e40047004200dd0075
:1043a000008040001001be001e0090008000400010
:1043b000a08220000080400010007800cf80de0046
:1043c0000201400083814800e40047004220dd00f4
:1043d000008040000288be001e0090000000e8003f
:1043e000100798001e009000e70f5000e8ff34000f
:1043f0001e0fe800300620009e0f1000cbff340097
:104400000000eb00304088000000eb0040408800d6
:104410000000eb0010079800130037001e04900006
:104420001e009000e40047004200dd0000804000d4
:104430001000be0036f0070002002000832c24008c
:1044400011f10700a2f10700000178008800440084
:10445000a083200000804000020878001e00900029
:104460000000e800100798001e009000e70f5000c1
:10447000eaff34004f0478000080fa0000000600d4
:104480000000fa000000370006c2bf006140600073
:104490000004e000fcff3a0006c2bf006440600078
:1044a0000004e000f8ff3a0006c2bf006840600068
:1044b0000004e000f4ff3a0006c2bf007040600054
:1044c0000004e000f0ff3a0009c2bf000044b2005f
:1044d0000004e000ecff3a000080fa000000060053
:1044e0000400fa00600920002010880007e2a900fb
:1044f00007e2a80085c0a90085a0a900b109200095
:104500009140780080cfb30000c060005040b300fd
:104510009be0b7008da0a9000071220001002000df
:10452000008fbe00040037000080eb008080eb00ad
:104530001e0f40005e9748001e00be00e00f5000b6
:10454000e08f5800f8ff3a00100020000080fa00c9
:10455000000006000400fa006000b800008fbe00f2
:1045600007e2a90085c0a90085a0a9008da0a90027
:104570000071220001002000008fbe0004003700ff
:104580000080eb008080eb001e0f40005e9748002b
:104590001e00be00e00f5000e08f5800f8ff3a0008
:1045a000cfff07000f00070000712200010020006c
:1045b000008fbe00040037000080eb008080eb001d
:1045c0001e0f40005e9748001e00be00e00f500026
:1045d000e08f5800f8ff3a00100020000080fa0039
:1045e000000006000000fa0085c0a9008dc0a800e8
:1045f000100020000080fa00000006000000fa0011
:1046000085c0a9008dc0a900100020000080fa001c
:10461000000006000600fa0010c0b300f8f4b7006e
:1046200008c2bf00704060000004e00016003200c5
:104630000602a8000071220001002000008fbe00c9
:104640000a003700f8d4bf000004e00003003a007d
:1046500010002000200798000d0037000080eb00bc
:104660008080eb001e0f40005e9748001e00be00d9
:10467000e00f5000e08f5800f2ff3a008000eb009e
:1046800021079800020037000000eb002007980087
:104690002e0090000080fa00000006000600fa00dc
:1046a00060c0b300f8f4b70008c2bf006840600003
:1046b0000004e000160032000622a800007122006b
:1046c00001002000008fbe000a003700f8d4bf00b0
:1046d0000004e00003003a001000200020079800ca
:1046e0000d0037000080eb008080eb001e0f4000c3
:1046f0005e9748001e00be00e00f5000e08f58009b
:10470000f2ff3a008000eb0021079800020037001a
:104710000000eb00200798002e0090000080fa00b7
:10472000000006000600fa0050c0b300f8f4b7001d
:104730000642a8000071220001002000008fbe0088
:104740000a003700f8d4bf000004e00003003a007c
:1047500010002000200798000a0037000080eb00be
:104760008080eb001e0f40005e9748001e00be00d8
:10477000e00f5000e08f5800f2ff3a008000eb009d
:10478000210798002e0090000080fa00000006002b
:104790000600fa0030c0b300f8f4b70006c2bf004c
:1047a000614060000004e00010003a0006c2bf0053
:1047b000644060000004e0000c003a0006c2bf0044
:1047c000684060000004e00008003a0006c2bf0034
:1047d000704060000004e00004003a0006c2bf0020
:1047e000624060000004e000030032000000eb00c3
:1047f000200798001600370006a2a9000682a8002c
:104800000071220001002000008fbe000a00370066
:10481000f8d4bf000004e00003003a0011002000bb
:10482000210798000a0037000080eb008080eb0031
:104830001e0f40005e9748001e00be00e00f5000b3
:10484000e08f5800f2ff3a008000eb00210798004b
:104850002e0090000080fa00000006000600fa001a
:1048600030c0b300f8f4b70006c2bf00614060007a
:104870000004e00010003a0006c2bf00644060007f
:104880000004e0000c003a0006c2bf00684060006f
:104890000004e00008003a0006c2bf00704060005b
:1048a0000004e00004003a0006c2bf00624060005d
:1048b0000004e000030032000000eb002007980035
:1048c0001600370006a2a8000682a8000071220088
:1048d00001002000008fbe000a003700f8d4bf009e
:1048e0000004e00003003a001100200021079800b6
:1048f0000a0037000080eb008080eb001e0f4000b4
:104900005e9748001e00be00e00f5000e08f580088
:10491000f2ff3a008000eb00210798002e00900083
:104920000080fa00000006000a00fa003007980034
:104930000071220001002000100798002107980054
:104940000040eb00004f780040c0b300f8f4b7001f
:104950000071220001002000100798002107980034
:104960001d00370006c2bf00614060000004e00087
:1049700013003a0006c2bf00644060000004e0007b
:104980000f003a0006c2bf00684060000004e0006b
:104990000b003a0006c2bf00704060000004e00057
:1049a00007003a0009c2bf000044b2000004e00062
:1049b00003003a0010c0b300004f78000b0037002e
:1049c0001e009000ae00900061005000e080580092
:1049d00010079800210798001e009000ae0090007c
:1049e000e00f5000e08f5800deff3a001e04e000a8
:1049f00003003a000000eb00400798001d0037005c
:104a00000662a800006a2800110020001007980024
:104a10002107980010003700f8d4bf000004e00020
:104a200007003a0000c2bf00804078003e009000be
:104a30000148780010002000400798000d00370062
:104a40001e009000ae00900061005000e080580011
:104a500010079800210798001e009000ae009000fb
:104a6000e00f5000e08f5800ebff3a000000eb0031
:104a7000400798004e0090000080fa0000000600f9
:104a80000800fa004047980020c0b300f8f4b700cf
:104a90004e40900002e2b7000071220001002000a9
:104aa000008fbe000a003700f8d4bf000004e00009
:104ab00003003a0010002000300798000a00370079
:104ac0000080eb008080eb001e0f40005e974800e6
:104ad0001e00be00e00f5000e08f5800f2ff3a00c9
:104ae0008000eb00310798003e0090000080fa0043
:104af00000000600801f78003400f800000020004d
:104b0000a00188000000fa0085c0a9000040eb0069
:104b1000f8f4b7000080fa003400f9004f00780084
:104b2000004006000400fa0050a780000000e000ea
:104b30001f003200f1a6800080da2f00808f500025
:104b40001b003500f1a6800080252000808f5000da
:104b500017003c00d602a900d622a900d642a9001f
:104b6000d662a9000000eb0050a78800f0a68000e4
:104b700000017800120798001e0190000200e0007a
:104b800003003d001e0190000201ea001207980098
:104b9000007122001e019000110009000200d800df
:104ba000ef00500020592200750307004d00370028
:104bb000f0a680000000e0000c00340030a7800068
:104bc0000000e80030a7880010a780000000e9007e
:104bd00010a7880010a780000000e0000e003d0034
:104be0003000200010a788000b00370030a780009d
:104bf0000000e90030a7880010a780000000e8004e
:104c000010a7880010a78000e30f500002003400b6
:104c10000000eb0010a7880010a78000000f7800ac
:104c20001e017800e10f5100130032001e007800d1
:104c3000e10f500004003c001e0178000200e0007b
:104c4000080032001a0037001e007800e20f500002
:104c50000e0032001e017800e30f510010003200f8
:104c600013003700d602a900d622a800d642a90018
:104c7000d662a8000e003700d602a900d622a800ee
:104c8000d642a800d662a90009003700d602a800c3
:104c9000d622a900d642a800d662a9000400370097
:104ca000d602a800d622a900d642a900d662a80042
:104cb000f1a6800080da2f00808f500009003500b7
:104cc000f1a6800080252000808f500005003c0068
:104cd0001000200050a78800f10020002059220079
:104ce000270307000080fa00000006000400fa0015
:104cf00060a780000000e0001f00320001a78000d4
:104d000080da2f00808f50001b00350001a7800043
:104d100080252000808f500017003c00d682a9001b
:104d2000d6a2a900d6c2a900d6e2a9000000eb00d5
:104d300060a7880000a78000000178001207980093
:104d40001e0190000200e00003003d001e019000e3
:104d50000201ea0012079800007122001e01900073
:104d6000110009000200d800ef0050006067220027
:104d7000030307004d00370000a780000000e0009b
:104d80000c003d0040a780000000e90040a788001b
:104d900020a780000000e90020a7880020a780004d
:104da0000000e0000e003d003000200020a7880039
:104db0000b00370040a780000000e80040a78800f3
:104dc00020a780000000e80020a7880020a780001e
:104dd000e30f5000020034000000eb0020a7880021
:104de00020a78000000f78001e017800e10f51001d
:104df000130032001e007800e10f500004003c0058
:104e00001e0178000200e000080032001a0037009e
:104e10001e007800e20f50000e0032001e017800e4
:104e2000e30f51001000320013003700d682a900b2
:104e3000d6a2a800d6c2a900d6e2a8000e0037006c
:104e4000d682a900d6a2a800d6c2a800d6e2a900a0
:104e500009003700d682a800d6a2a900d6c2a800b1
:104e6000d6e2a90004003700d682a800d6a2a90085
:104e7000d6c2a900d6e2a80001a7800080da2f00e0
:104e8000808f50000900350001a780008025200098
:104e9000808f500005003c001000200060a78800b3
:104ea000f100200060672200b50207000080fa00d0
:104eb000000006000000fa008000eb0020592200ec
:104ec000570207008000eb006067220054020700d1
:104ed0000080fa00000006000200fa00000f7800cf
:104ee0001e00e0000a003a000000eb00f0a6880077
:104ef0008000eb0020592200a1020700d602a90081
:104f0000d622a900d642a900d662a9002d003700fa
:104f100080c12f009e0f10000a003d0080c12f00ad
:104f2000f0a68800f2a68000008f2d001100090075
:104f30000200d8008000780020592200900207006b
:104f400020003700803e20009e0f10000a00340031
:104f5000803e2000f0a68800f2a6800000712200aa
:104f6000110009000200d8008000780020592200ba
:104f700083020700130037001e007800f0a68800a7
:104f80001e00e00008003d00008f2d001e0178008b
:104f9000110009000200d80080007800205922008a
:104fa0007702070007003700007122001e01780019
:104fb000110009000200d80080007800205922006a
:104fc0006f0207000080fa00000006000200fa00ed
:104fd000000f78001e00e0000a003a000000eb001d
:104fe00000a788008000eb006067220064020700d1
:104ff000d682a900d6a2a900d6c2a900d6e2a900ed
:105000002d00370080c12f009e0f10000a003d00c8
:1050100080c12f0000a7880002a78000008f2d000c
:10502000110009000200d8008000780060672200ab
:105030005302070020003700803e20009e0f100022
:105040000a003400803e200000a7880002a78000ec
:1050500000712200110009000200d80080007800d1
:105060006067220046020700130037001e00780028
:1050700000a788001e00e00008003d00008f2d0002
:105080001e017800110009000200d800800078009d
:10509000606722003a020700070037000071220013
:1050a0001e017800110009000200d800800078007d
:1050b00060672200320207000080fa00000006004c
:1050c0000800fa00000f7800110798001e00780011
:1050d000300798003e0190000200e00003003d0010
:1050e0003e0090000000ea00300798001e0190008a
:1050f000220798002e0090000000e00003003d0011
:105100002e0190000201ea00220798003e00900064
:105110002e01900082004000803e2000808f5000d1
:1051200006003c001e0090001e0010006aff0700f1
:105130001e0090001e004000a4ff07000080fa003f
:10514000000006000000fa0030a780000080fa008e
:10515000000006000200fa00000f78001e00780030
:1051600030a788000080fa00000006000000fa0066
:1051700040a780000080fa00000006000200fa004c
:10518000000f78001e00780040a788000080fa0019
:10519000000006000000fa008080a9000080fa00ec
:1051a000000006000600fa000000eb00000f780087
:1051b0000b0037000e80e800cf0407000000e0007d
:1051c000fcff32001e00780080007800e0422100e1
:1051d000808040002e409000804878001e0fe8003c
:1051e0001e007800eb0f5000f2ff3600840007002d
:1051f000b1a1800020052000808f500003003a00fc
:105200000000eb002007980002003700100020008b
:10521000200798002e0090000080fa000000060091
:105220000400fa000000eb00000f78000b003700cc
:105230000e80e800b00407000000e000fcff320030
:105240001e00780080007800a0422100808040008d
:105250002e409000804878001e0fe8001e00780065
:10526000e30f5000f2ff3600020007000080fa0052
:10527000000006000000fa002bd4bf000004e0008c
:1052800008003200c80307000040eb00ecf70700fd
:105290002ad4bf001afa07000040eb0027fa0700e3
:1052a0001ffa07000000eb0090a188000000eb004f
:1052b000f0a388000080fa00000006000400fa0055
:1052c000881f78000000eb00100798000c003700e2
:1052d0001e0490001e009000d2fb07000001780021
:1052e00008004400e80040006044210000804000c5
:1052f000020878001e0090000000e80010079800e7
:105300001e009000e70f5000f1ff340051f6070037
:10531000f0a2880054f6070000a3880057f60700a3
:1053200010a388000000eb003b03070030a38800b7
:10533000100020003803070040a388002000200050
:105340003503070050a388000000eb001007980009
:105350000d0037001e0490001e009000cdfb0700da
:105360000001780008004400810220008080400095
:105370006044210000804000020878001e00900078
:105380000000e800100798001e009000e70f500092
:10539000f0ff34002bd4bf000004e0000f00320007
:1053a0000040eb00004f7800acf70700004f78009a
:1053b0001e80fb00f0a388001e04e00007003200fe
:1053c000d6f7070040a28800e6f7070050a2880041
:1053d00061a28800bff7070030a288006044210066
:1053e000c103200026040700310407000000e0008c
:1053f000fdff3a004f0478000080fa00000006002c
:105400000200fa00d1a1800070a18000808f5000be
:105410000200320070a18000affe0700e1a1800011
:1054200080a18000808f50000200320080a18000a7
:10543000e6fe07000000eb00000f780012003700c6
:1054400040d4bf000081fb00110020001e00780046
:105450000008dd008001610034d4bf000081fb0042
:10546000110020001e0078000008dd00000061002f
:10547000808f5100030032001e00780001012000df
:10548000b3f007001e0fe800700020009e0f100010
:10549000ebff340041d4bf000080fb00e10060005e
:1054a00035d4bf000080fb0061006000808f500099
:1054b000020032000001200021f2070041d4bf00a9
:1054c0000080fb00e200600035d4bf000080fb00dc
:1054d00062006000808f5000020032000001200056
:1054e000f7f107002bd4bf000004e00002003200f7
:1054f00090a1800057f90700e1422100a04321005c
:105500001101be000288be0064004000e48040003b
:105510001101be000288be0064004000e48040002b
:105520001101be000288be000080fa0000000600e3
:105530000e00fa006000b8006011b8003007980053
:105540004107980052079800630798006000b80070
:105550006011b80030079800410798005207980082
:105560006307980010003700000000003e00900024
:10557000ce0090005e019000ee019000140020002b
:10558000050020006033b8000000420081804a001e
:1055900002014b0083814b003007980041079800bf
:1055a00052079800630798003e029000ce029000d8
:1055b0005e039000ee039000f0fb2c00a10620009b
:1055c0006011b8000020e10001a8e10002b0e10094
:1055d00003b8e100e4ff34004103070035fe070093
:1055e0007a000700d20307000000eb0020079800b4
:1055f0006000b800008fbe008000eb00800020003b
:1056000053f007000000eb00200798001600370059
:105610002e009000110020004df007006000b8003f
:10562000008fbe00050037000000000010002000c1
:10563000010020001e0f40005e974800f06928001e
:1056400011002000be0f1000ae8f1800f6ff3400ce
:105650002e0090008000eb003df007002e0090002f
:105660000000e800200798002e009000e70f50008f
:10567000e7ff34008000eb008000200034f00700da
:1056800040c7bf00614060000004e000020032003b
:105690004007a9000000fe000080fa00000006009c
:1056a0000a00fa00a2ff07000000eb003007980094
:1056b0006000b80010079800210798000000eb0078
:1056c000000f78008000eb008000200020f0070031
:1056d0002e0037001e0fe8001e007800a2002000f8
:1056e000110009000200d8008000fd000000e00069
:1056f0000a003a003e0090000000e800820020000e
:10570000110009000200d8008000fd003007980059
:105710003e009000110020000df007006000b8006e
:1057200010079800210798000700370000000000cc
:105730001e009000ae00900061004000e080480034
:1057400010079800210798001e019000ae019000fc
:10575000f069280011002000800f5100818f59004e
:10576000f2ff34001e007800a200200011000900a2
:105770000200d8008000fd000000e00003003a00b5
:105780003e0090008000eb00f1ef0700680047004a
:10579000590307000000e000ceff32001100200096
:1057a00080002000eaef07009dfe07008000eb006c
:1057b00080002000e6ef0700c0fe070079fe07002a
:1057c0000000e000b8ff3200fbff37000000fa00e5
:1057d0000000eb0080088800011120009140780053
:1057e000f0ccb30000c0600010e1b7000000eb0097
:1057f00030088800205c20006008880084c0a90070
:105800008cc0a80011e1a8000080fa00000006008a
:105810000000fa0011e1a9000080fa000000060073
:105820000800fa00100798002107980090a880004f
:10583000000f78000b0037001e007800b0009000c9
:105840001e009000808f500003003a0011002000dd
:10585000310798001f0037001e007800c00090003c
:10586000010f78001e00e000f3ff3a00a0002000c6
:1058700068ee0700000f78001e00e00002003a000a
:105880001000200024ef0700ae0090001e007800fa
:10589000010878009e0078000000eb00900098005e
:1058a0009e00780010c0b300c04098001e00780031
:1058b0009e0090003100980091a880001e007800a2
:1058c000410098001e00780090a888001100200078
:1058d000310798003e0090000080fa0000000600aa
:1058e0000800fa00200798000000eb00100798005d
:1058f00090a88000000f78001a0037001e00780082
:10590000b00090002e009000808f500010003a00f0
:105910001e0090000000e000050032001e0078002c
:10592000c00090001e009000410098000300370066
:105930001e0078004000900090a888001e007800ab
:10594000c2ee07001100200031079800090037005f
:105950001e007800100798001e007800c00090001c
:10596000010f78001e00e000e4ff3a002000200054
:10597000300798003e0090000080fa00000006000a
:105980000800fa00100798002107980090a88000ee
:10599000000f78000e0037001e007800b000900065
:1059a0001e009000808f500006003a00ae0090006c
:1059b0001e007800010878001100200031079800cf
:1059c000070037001e007800c0009000010f78002b
:1059d0001e00e000f0ff3a00200020003007980091
:1059e0003e0090000080fa00000006000600fa0069
:1059f0001007980090a88000000f78000e00370074
:105a00001e007800b00090001e009000808f5000b3
:105a100006003a009e0078000000eb00900098001d
:105a20001100200021079800070037001e007800b1
:105a3000c0009000010f78001e00e000f0ff3a0067
:105a400020002000200798002e0090000080fa001f
:105a5000000006000600fa001007980090a88000d9
:105a6000000f78000e0037001e007800b000900094
:105a70001e009000808f500006003a009e007800c3
:105a80000040eb00c0409800110020002107980062
:105a9000070037001e007800c0009000010f78005a
:105aa0001e00e000f0ff3a002000200020079800d0
:105ab0002e0090000080fa00000006000600fa00a8
